:100000000C94DC020C9414030C9414030C9414034D
:100010000C9414030C9414030C9414030C94140304
:100020000C9414030C9414030C94A4210C947422C7
:100030000C94AF1C0C9414030C9414030C94140330
:100040000C9414030C9414030C9414030C941403D4
:100050000C9414030C94471D0C9414030C94140377
:100060000C9414030C9414030C9414030C941403B4
:100070000C9414030C9414030C9414030C941403A4
:100080000C9414030C9414030C9414030C94140394
:100090000C9414030C9414030C9414030C94140384
:1000A0000C9414030C9414030C94140328290101D8
:1000B000500067697420636F6D6D6974202D6D2029
:1000C0002222010150006D61696E6370700104327B
:1000D00030307C01012B000102E201012C0103E21E
:1000E0004678536F756E6401043430307C0101280A
:1000F000000102E70102E101014F0103E70103E111
:1001000000736F7572636520656E762F7363726915
:100110007074732F6163746976617465010434309F
:10012000307C010128000102E201012C0103E2738D
:10013000706F7469667901043430307C01012800E5
:100140000102E201012C0103E2646973636F7264CE
:1001500001043430307C0101280029001E001F00FA
:100160002000210022002300240025002600270073
:100170002D002E0031002B0014001A00080015007D
:1001800017001C0018000C00120013002F00300094
:100190002A00394204001600070009000A000B007B
:1001A0000D000E000F003300340028004C00E10069
:1001B00000001D001B0006001900050011001000C2
:1001C000360037003800E500E700E0000100E200FB
:1001D0000000000000002C4100000000E6000100CB
:1001E00000000100E40035003A003B003C003D0007
:1001F0003E003F00400041004200430044004500F3
:100200000100010001005200010001000100010095
:10021000010049004C000100010001000100010043
:10022000500051004F004A00010001004D00010044
:100230000100477E01000100010001000000737C05
:100240000100AA00A900010011140100AC00AE00D9
:10025000AB000100010001000100010000000000EE
:10026000000001000000000001000100000001008A
:100270000100350101000100457E0100010001007F
:100280000100010001000100010001000100437EA6
:10029000407E3D04427E010001000100010001009A
:1002A0000100460001000100010001000100417E43
:1002B0000100447E467E01000100010001000100B2
:1002C0000100010001000100000001000100B20076
:1002D0000100010001000100010001000100010016
:1002E000007C01000100010000000000000001008E
:1002F000000000000100010000000100635229001D
:100300001E001F00200021002200230024002500E1
:10031000260027002D002E0031002B0014001A00AB
:100320000800150017001C0018000C001200130034
:100330002F0030002A00394204001600070009008F
:100340000A000B000D000E000F00330034002800DF
:100350004C00E10000001D001B0006001900050014
:1003600011001000360037003800E500E700E0001B
:100370000100E2000000000000002C00000000006E
:10038000E600010000000100010000000000000084
:1003900000002A2B280000000000000000000000E0
:1003A000000000000029000000002C1E3420212243
:1003B00024342627252E362D3738271E1F202122AC
:1003C000232425263333362E37381F040506070825
:1003D000090A0B0C0D0E0F10111213141516171815
:1003E000191A1B1C1D2F3130232D35040506070853
:1003F000090A0B0C0D0E0F101112131415161718F5
:10040000191A1B1C1D2F3130354C00000000000054
:1004100000000000000000000000000000000000DC
:1004200000000000000000000000000000007E0F3F
:1004300000D4FFFFFFC700000078100350006F00DA
:100440006C00610072006900730000001E0346002A
:100450004A004C00610062006F007200610074008D
:100460006F00720069006500730000000403090456
:1004700009023B00020100A0FA0904000001030187
:100480000100092111010001224400070581030830
:10049000000109040100010300000009211101000D
:1004A0000122B600070582032000011201000200AC
:1004B00000000874700190010001020001050109AB
:1004C00002A10185020901A10005091901290815E8
:1004D00000250195087501810205010930093115D2
:1004E00081257F95027508810609381581257F953C
:1004F0000175088106050C0A38021581257F9501D2
:1005000075088106C0C005010980A1018503190194
:100510002AB700150126B700950175108100C005A6
:100520000C0901A101850419012AA002150126A0C8
:1005300002950175108100C005010906A10185061B
:10054000050719E029E715002501950875018102C5
:100550000507190029EF1500250195F075018102A5
:100560000508190129059505750191029501750385
:100570009101C005010906A101050719E029E71548
:100580000025019508750181029501750881010515
:1005900007190029FF150026FF0095067508810040
:1005A0000508190129051500250195057501910218
:1005B000950175039101C00011241FBECFEFDAE051
:1005C000DEBFCDBF04B603FE18C08091C502909176
:1005D000C602A091C702B091C8028730904BA740D5
:1005E000B04B59F41092C5021092C6021092C70285
:1005F0001092C802E0E0F8E3099511E0A0E0B1E054
:10060000ECE0FBE402C005900D92A639B107D9F7E2
:1006100022E0A6E9B1E001C01D92A53CB207E1F7D6
:100620000E940D130C94EC240C940000DB01FC01DF
:10063000E054FE47E830F10568F4E251FB4D1596B1
:100640009C910C943324992329F060E080E491E09C
:100650000E94AE1981E008959923E1F360E086E2FB
:1006600091E0F6CF9923B1F360E081E091E0F0CF23
:10067000992381F360E081EF90E0EACF992351F371
:1006800060E087ED90E0E4CF992321F360E086EC11
:1006900090E0DECF9923F1F260E082EB90E0D8CFDA
:1006A0009923C1F260E08CEA90E0D2CF8430B8F4B4
:1006B0006530A8F44E3098F4E42FF0E09EE0699F96
:1006C000E00DF11D112496E4899FE00DF11D112428
:1006D000EE0FFF1FE65AFE4F85919491089581E039
:1006E00090E008950E945603089581E008950E94C5
:1006F0007503089581E008950E94160308950895F2
:100700000E947F030895A6E0B0E0E9E8F3E00C94CE
:10071000482449835A839E8330919D0189819A811F
:1007200031111AC03E81332399F0222389F00E94AF
:10073000AC09182F682F89819A810E9488096981E4
:100740007A81812F0E94B4102696E3E00C946424F1
:100750000E949A09182FF3CF0E94AC0969817A810F
:10076000F1CFFC01262F4081518162817381848108
:1007700095810E9483030895CF93DF93D82FC92FCB
:1007800061E00E94B1036D2F7C2F0E947703DF91FF
:10079000CF910895CF93DF93D82FC92F60E00E94A7
:1007A000B1036D2F7C2F0E948003DF91CF910895BC
:1007B00081E008950E94D8030895CF93C82F0E9426
:1007C0005A088C2F0E94DA032FE78AE196E0215025
:1007D00080409040E1F700C00000CF91089581E093
:1007E0000E94DD030E946B1D089580E00E94DD03DE
:1007F0000E948F1D08950F931F93CF93DF938C0159
:1008000061E00E94B103EC01B8010E947C038823DF
:10081000E1F1B801CE010E9464138823B1F1B8015F
:10082000CE010E947E1A882381F1B801CE010E9478
:100830009815882351F1B801CE010E946D158823C7
:1008400021F1F8018581882381F0CA35FCE7DF07B3
:1008500039F178F4C130ECE7DE07F9F0C330FCE79A
:10086000DF07C9F0C115DC4771F0C8010E947A03A7
:100870000DC0CB35ECE7DE07B1F0CC35DC47A9F78E
:100880000E94E30DF2CF0E94EF0380E0DF91CF9151
:100890001F910F9108950E94F50D0E94F503F5CF69
:1008A0000E94ED0DE2CF0E94F10DDFCF0E948B1C64
:1008B0000E94840408950E9488040E94901C089558
:1008C000089581E0089581FF02C0479A08954798EE
:1008D0000895CF93DF93D82F0E946104C82F8823F7
:1008E00019F08D2F0E9463048C2FDF91CF91089512
:1008F0003F9A47980895CF93C82F0E9460048C2F89
:100900000E946904CF91089580E00E947B040895BD
:100910000E94C41A0E947B040895CF930E94C41AB7
:10092000C82F809198018C1779F0C09398010E948C
:100930001B1D6093990170939A0180939B01909382
:100940009C018C2F0E947B04CF910895ADE0B0E014
:10095000ECEAF4E00C944924488759876A877B873E
:100960008C879D8791110E94EB0C1F8286E0FE010F
:100970003896DE01119601900D928A95E1F78D81EE
:1009800081110DC029813A814B815C816D817E810D
:100990008F810E94310C2D96E2E00C946524CE01EB
:1009A00001960E94BC038111EDCFF5CFFC0184813B
:1009B000813021F4808191810E94DE0908956623AF
:1009C00029F00E9406170E94DC1708950E94641700
:1009D000FACFCF93C82F8823C9F08238C9F40E9478
:1009E000D11A81FD13C089E30E94F81B0E94860D75
:1009F0002FEF33EF81E0215030408040E1F700C01D
:100A0000000089E30E940F1C0E94860DCF9108957B
:100A10008338A1F40E94D11A80FDF8CF83E50E94AB
:100A2000F81B0E94860D9FEF20E732E09150204096
:100A30003040E1F700C0000083E5E4CF8438A1F442
:100A40000E94D11A82FDE2CF87E40E94F81B0E9427
:100A5000860D8FEF90E722E0815090402040E1F733
:100A600000C0000087E4CECF8CEF8C0F813A98F461
:100A70008C2F0E94A5148111C9CF8C2F0E946A1B54
:100A8000882329F08C2F0E940F1C0E94860D8C2F2A
:100A90000E94F81BB9CF80E28C0F883048F4C770F1
:100AA00081E001C0880FCA95EAF70E94CC0CACCF58
:100AB0008BE58C0F833038F42C2F2452330BC90173
:100AC0000E94FD1AA3CFE8E5EC0FEB3150F4F0E003
:100AD000EE0FFF1FE95EFE4F808191810E94231B74
:100AE00095CF83E38C0F833108F090CF61E08C2F9A
:100AF0000E94DF048BCF882309F456C0823879F432
:100B00000E94D11A81FF50C089E30E94F81B0E9405
:100B1000860D89E30E940F1C0E94860D089583387C
:100B200059F40E94D11A80FF3FC083E50E94F81B50
:100B30000E94860D83E5EECF843859F40E94D11AC5
:100B400082FF32C087E40E94F81B0E94860D87E472
:100B5000E1CF9CEF980F913AE8F290E2980F98302D
:100B600050F4877091E001C0990F8A95EAF7892FB8
:100B70000E94D20CD1CF9BE5980F933028F480E0EF
:100B800090E00E94FD1A089598E5980F9B3128F493
:100B900080E090E00E94231B089593E3980F933127
:100BA00018F460E00E94DF0408951F93CF93DF9351
:100BB000182FEB010E94E904209739F4812F0E943D
:100BC0007B05DF91CF911F9108958FEC97E00197FE
:100BD000F1F700C000002197EFCF60E070E08933AB
:100BE00011F460E570E00E94D5050895882321F096
:100BF0000E94CC0C0E94860D0895882321F00E944B
:100C0000D20C0E94860D0895A0E0B0E0EAE0F6E084
:100C10000C9443246C01D62FC72FFC01158106814B
:100C200002950F700E94C10CE82E8823F9F0E12E86
:100C30001123E1F08C2F807F803461F080E28D0FF2
:100C40008830F0F08C2F807E803221F4D230C0F0DA
:100C50000023B1F080919F0282FF12C082E00E94C7
:100C6000B60D0E94C10C91E0E82EE926EC2FE2952A
:100C7000EF70C03CB0F5F0E0EA50FB4D0C9433242B
:100C8000E12CF4CF0C2F0F70C03110F00295007FD3
:100C9000112399F0002359F080E28D0F883010F075
:100CA000D11107C0802F0E94CC0C0E94860D8D2F81
:100CB00051C0802F0E94DD0CF8CF8D2F0E947B0544
:100CC000002379F080E28D0F883010F0D11104C03C
:100CD000802F0E94D20C03C0802F0E94E30C0E9440
:100CE000860DEE2089F00E94BD0C80FD0DC0F6013E
:100CF00015820E94B70C0E94E508C6010E941A08DE
:100D00000E94B70C0E94F508CDB7DEB7E8E00C945E
:100D10005F24FC2FFF70FF2EC07FC03219F0F294C9
:100D200080EFF822DD2341F0D130D1F1112309F415
:100D300044C00023F1F0BBCF80919F0282FD15C01B
:100D4000112359F0FF2029F08F2D0E94CC0C0E9416
:100D5000860D80E00E94E904C4CF80E00E947B05FC
:100D6000FF2009F4BECF8F2DB4CF112369F00111FC
:100D700004C08F2D0E94F605B4CF013009F0B1CF29
:100D80008F2D0E94060DADCF0111ABCF8F2D0E948C
:100D9000FD058F2D0E94120D8F2D0E94F50CA1CF05
:100DA000112321F0063008F09CCFE3CF053008F086
:100DB00098CF8F2D0E94FD0594CF0023D1F3D93316
:100DC00049F42FEF83EF91E0215080409040E1F70C
:100DD00000C000008D2F0E947B0583CF8C2F86954D
:100DE00086958370882369F0813009F07ACF8D2F42
:100DF0009C2F9370111102C080E090E00E94231B91
:100E000070CF8D2F9C2F9370111102C080E090E065
:100E10000E94FD1A66CF612F8D2F0E94DF0461CFE3
:100E20008C2F8370811139C0111129C04D2F42952B
:100E300046954770440F440F2D2F2F7030E0042E3D
:100E400002C0220F331F0A94E2F780E090E0D4FF43
:100E500009C08FE090E002C0880F991F4A95E2F721
:100E600080959095C695C695C370822B932BC23002
:100E700071F0C33079F0C13039F00E94B5080E949A
:100E8000C41A0E947B042DCF0E94AC08F8CF0E94A8
:100E9000BE08F5CF0E94A908F2CF112361F1C0FF6F
:100EA000EECF4D2F429546954770440F440F2D2F9E
:100EB0002F7030E0042E02C0220F331F0A94E2F795
:100EC00080E090E0D4FF09C08FE090E002C0880F7E
:100ED000991F4A95E2F780959095C695C695C3707F
:100EE000822B932BC23069F0C33071F0C13031F0E6
:100EF0000E942009C4CF823010F2D3CF0E9417097C
:100F0000BECF0E942909BBCF0E94CD08B8CFCF70B9
:100F1000112339F08C2F0E94E5088D2F0E94F605D1
:100F2000AECF8D2F0E94FD058C2F0E94F508A7CF14
:100F3000D23F31F170F4D03FB9F0D13FB1F111237C
:100F400009F44EC0002309F448C08D2F0E94E90423
:100F500096CFD33FE1F0D43F21F11111F3CF01112E
:100F60004DC08C2F8F71E1CF112341F0053008F077
:100F700086CF8C2F8F710E94070981CF0530F7CF64
:100F80008C2F8F711111D1CF0E94E50878CF1123DA
:100F900029F08C2F8F710E94D90871CF0E94D4083C
:100FA0006ECF80919F0282FD06C08C2F8F7111231E
:100FB00009F4BBCFE9CF112331F063E08C2F8F719F
:100FC0000E94980D5CCF81E00E94B60D023008F4BB
:100FD00056CF82E00E94B60D52CF8C2F8F71D4CFA6
:100FE000002309F4BECFD93349F4EFEFF3EF21E04A
:100FF000E150F0402040E1F700C000008D2F0E943A
:101000007B053DCF0F931F93CF93DF93EC01688156
:1010100079818D810E94EB098C010E9432090E9426
:10102000A808B801CE010E940406DF91CF911F915C
:101030000F910895CF93DF93EC018C81882399F071
:10104000CE010E94FB03811111C00E94C10C8823B4
:1010500051F08D81882339F080919F0282FF03C077
:1010600082E00E94B60DDF91CF910895CE010E94DB
:101070000208CE010E94CA03F6CF882321F00E9405
:10108000E30C0E94860D089580E090E00E94FD1A16
:1010900080E090E00E94231B0E94EB0C0E94860DD2
:1010A0000E94F9170E94DC1708950E94261C0E94D6
:1010B000440808950E94DA0C0E9455080895282FCC
:1010C00092959F70963091F060F4925F9F7092308D
:1010D00030F481E0203F79F030F4283E30F080E0B9
:1010E00008959A5FF3CF243FD1F7089581E0283E19
:1010F000E0F3213FF9CF0895FC018481882339F082
:10110000808191810E94DE090E945F08089580E03D
:101110000895A6E0B0E0EFE8F8E00C9449242696A4
:10112000E2E00C946524A7E0B0E0E9E9F8E00C9473
:1011300049242796E2E00C94652408950E949D08B6
:1011400008950E949E089093C5018093C40108955C
:1011500008950E94A10808952091C4013091C5010D
:10116000822B932B0E94A10808952091C4013091F5
:10117000C501822393230E94A10808952091C401F0
:101180003091C501822793270E94A10808950E94EB
:101190009D0808950E94C70808950E94CA08909368
:1011A000C3018093C201089580E090E00E94CD08C1
:1011B000089521E030E0A90102C0440F551F8A952F
:1011C000E2F7CA010E94CD08089521E030E002C094
:1011D000220F331F8A95E2F78091C2019091C301DB
:1011E000822B932B0E94CD08089521E030E002C0AD
:1011F000220F331F8A95E2F7209530958091C20126
:101200009091C301822393230E94CD08089521E089
:1012100030E002C0220F331F8A95E2F78091C201AD
:101220009091C301822793270E94CD0808952091B1
:10123000C2013091C301822B932B0E94CD080895E7
:101240002091C2013091C301822393230E94CD08D3
:1012500008952091C2013091C301822793270E94F3
:10126000CD08089508959B01677091E001C0990F22
:101270006A95EAF763E0369527956A95E1F7220FBC
:10128000331F220F331FFA01E20FF31F40E050E03B
:10129000682F70E08191DF0111979B01042E02C03D
:1012A000369527950A94E2F721702195282729235E
:1012B00028272C934F5F5F4F4430510559F708950D
:1012C0009C01982F977083E0369527958A95E1F7D2
:1012D000220F331F220F331FFB01E20FF31F40E0E9
:1012E00050E080E0219130E0092E02C0369527952C
:1012F0000A94E2F721703327042E01C0220F0A94CA
:10130000EAF7822B4F5F5F4F4430510559F708953C
:10131000282F862F953068F42E3058F4622F70E015
:101320002EE0929F600D711D11244EE951E00E9444
:1013300033090895292F953068F48E3058F490E0E1
:101340006EE971E03EE0239F800D911D11240E9403
:101350006009089580E00895A0E0B0E0E2EBF9E0D4
:101360000C9442248C01E090C201F090C301809162
:10137000C4019091C501E82AF92ACFE0D0E0CC243D
:10138000C394D12CC6010C2E02C0880F991F0A9459
:10139000E2F78E219F21892B49F4219798F7B12CF0
:1013A0008B2DCDB7DEB7E9E00C945E24BC2EB801DE
:1013B0008C2F0E94C010019781F3F2CFCF93DF935F
:1013C000D82FC92F0E94AC096D2F7C2F0E94C0100E
:1013D000DF91CF9108951F93CF93DF93162FD72FCF
:1013E00090919D01992341F0862F972F0E94DE094D
:1013F000DF91CF911F910895882381F0862F972F39
:101400000E94AC09C82F682F812F9D2F0E94880948
:10141000612F7D2F8C2F0E94C010EACF862F972F2F
:101420000E949A09C82FF4CF0F931F93CF93E09196
:10143000C601C7E08091C7018E1304C0CF911F91F0
:101440000F9108950E2F10E0CE9FF0011124E85364
:10145000FE4F208131814281538164817581868173
:101460000E949308F8013196E770E4CF20910002C2
:1014700030910102409102025091030260910402F6
:1014800070910502809106020E9493080895809150
:101490000602803178F480910502882359F0E091AA
:1014A000C6012091C701309101024091000257E02E
:1014B0002E1301C008956E2F70E05E9FF00111247D
:1014C000DF01A853BE4F14968C911497882361F1C5
:1014D00011968C911197831327C08C91841324C08B
:1014E00015968C91159781111FC012968D919C9124
:1014F000A0910202B09103028A1B9B0B883C9105CC
:1015000098F4809106028F70806180930602E25306
:10151000FE4F80818F708061808380E092E00E9426
:101520001A080E94140A0895FB013196E770C0CF93
:10153000E091C6019091C70127E0E91302C080E065
:101540000895AE2FB0E02E9FF0011124E853FE4F16
:101550003181361306C03081381303C0358134130E
:1015600004C0FD013196E770E8CF81E008958F92C5
:101570009F92AF92BF92DF92EF92FF920F931F93D1
:10158000CF93DF93CDB7DEB72D970FB6F894DEBFBC
:101590000FBECDBF8C0186E0F801DE0118960190E8
:1015A0000D928A95E1F7F801E080F580A280B38082
:1015B000848190E0892E92E0992E909104029111FD
:1015C0001BC0882309F4FCC0FF2009F43DC1C801F9
:1015D0000E947C08882309F437C187E0F801D40110
:1015E00001900D928A95E1F7C4010E94D6040E94F1
:1015F000470A0E94360AE4C0D090050220910202F8
:1016000030910302A501421B530BDD2009F4DBC01E
:10161000483C510508F0A6C0882309F4D1C0909138
:101620000102918080910602803108F06BC099120E
:1016300028C0909100029E1124C0F1105DC08F70EF
:101640008061809306020E94360A80E092E00E9448
:101650001A0880910602F8018683F12C8F2D2D96B1
:101660000FB6F894DEBF0FBECDBFDF91CF911F91B3
:101670000F91FF90EF90DF90BF90AF909F908F9071
:101680000895F11039C040E0692D8E2D0E94980A0E
:1016900040E0692D8E2D0E94980AF82E8111DDCF31
:1016A000888599850E94DE09292F22952F70903414
:1016B00050F49F70223080F0992399F0F8019681C0
:1016C000903178F4CBCF2A5F2F70223078F0C801A8
:1016D0000E941A08FD2CC2CF992319F0882309F41F
:1016E000BDCF805E883008F4B9CFF1CF803F08F4D9
:1016F000B5CF815F8230F7CF809106028160809301
:101700000602ABCF991207C0909100029E1103C050
:10171000FF2009F479C0C8010E947C08882309F4DD
:1017200093C0FF2009F490C080910602803288F0B7
:1017300020910002309101023A832983BC82AB825E
:10174000909104029D831E828F83CE0101960E9498
:101750001A0887E0F801A0E0B2E001900D928A95A6
:10176000E1F745CF909106029031A0F44885598564
:101770006A857B858C859D850E94890880E092E042
:101780000E941A0887E0F40111928A95E9F70E94F5
:10179000360A63CF8823A1F02091010281812813AA
:1017A000BACF809100028E11B6CFF110B4CF9683DC
:1017B000C8010E941A0887E0F40111928A95E9F79E
:1017C000FF24F3944BCF483C510508F041C08823D7
:1017D000B9F3FF20C9F190910102818198132AC0C9
:1017E000809100028E1126C08091060280FD19C0F2
:1017F0008031B8F08683807F803F39F08681982FD2
:10180000907F905F8F70892B8683C8010E941A0891
:1018100087E0F801A0E0B2E001900D928A95E1F72F
:10182000E8CE87E0F801A0E0B2E001900D928A9541
:10183000E1F7C6CFC8010E947C0881118ACF809150
:101840000602816080930602C8010E941A08B8CF80
:10185000488559856A857B858C859D850E94890888
:1018600091CFAEE0B0E0E7E3FCE00C944824288799
:1018700039874A875B876C877D878E87CE0108967C
:101880000E94B70A8823B1F06C85662341F0288551
:1018900039854A855B857D858E850E94930817E092
:1018A0008091C6019091C70189133EC02E96E3E056
:1018B0000C94642487E0FE013896DE0111960190B5
:1018C0000D928A95E1F72091C7014091C6018C8560
:1018D000882329F330E0C90101968770992750E0E9
:1018E0008417950799F097E0929FD001939FB00DD0
:1018F0001124A853BE4FFE01319601900D929A9586
:10190000E1F78093C7010E94140AC9CF0E945A08C8
:101910001092C7011092C60187E0E0E0F2E0DF011B
:101920001D928A95E9F7BBCF189FC00111248853F7
:101930009E4F0E94B70A882309F4B8CFE091C601F0
:101940001E9FF0011124E853FE4F20813181428116
:1019500053816481758186810E9493088091C601BC
:1019600090E00196877099278093C60199CF809166
:101970002F02869586958695089580912F0287700F
:10198000089590912F02977081E0911101C080E03D
:10199000089580915B02089590915B02982B90933B
:1019A0005B020895982F909580915B028923809324
:1019B0005B02089510925B02089590915A02982B51
:1019C00090935A020895982F909580915A028923F6
:1019D00080935A02089510925A020895809131021C
:1019E000089508950E94F10C089590913002292FD6
:1019F0002823222331F080958923809330020E948E
:101A0000F20C089508950E94020D089590913102FC
:101A1000292F2823281729F0982B909331020E9410
:101A2000030D089590913102292F2823222331F0AC
:101A300080958923809331020E94030D089580913F
:101A40003102882329F01092310280E00E94030DB8
:101A50000895CF93DF93C0915B0280915A02C82B07
:101A6000D0913102DD2331F00E94491B81110E9487
:101A70001F0DCD2B8C2FDF91CF910895CF93DF9346
:101A8000C0910201D09103010E94290D8883C09169
:101A90000201D091030148E050E067E272E0CE011C
:101AA0000E948424892B59F088E0FE01A7E2B2E06D
:101AB00001900D928A95E1F7CE010E94D41ADF9130
:101AC000CF910895CF93DF93C0910001D091010190
:101AD0000E94290D8983C0910001D091010140E24B
:101AE00050E067E072E0CE010E948424892B59F017
:101AF00080E2FE01A7E0B2E001900D928A95E1F745
:101B0000CE010E94DF1ADF91CF91089580911601D6
:101B1000882339F080919E0287FF03C00E94620DE6
:101B200008950E943E0D089508950E94940D089511
:101B300090919F0292FF11C098E0899F900111241B
:101B4000622B60932F020E94E50880912F028695F8
:101B5000869586950E94950D08950E94E508089542
:101B600010922F0280E00E94950D089590912F020F
:101B70008095892380932F02282F277021110DC073
:101B8000891759F090919F0292FF07C0869586951C
:101B900086950E94F5080E94B00D089590919F02CD
:101BA00092FB222720F9281769F080FB92F9909385
:101BB0009F0280919E0290919F020E94160E82E0E9
:101BC0000E94B60D089580919F0282FB882780F9BC
:101BD00091E089270E94CE0D089581E00E94CE0DEC
:101BE000089580E00E94CE0D08956FEF7FEF80E0B2
:101BF00090E00E94D624089580E090E00E94A22404
:101C00009C0181E0253E3E4F09F080E0089582E08E
:101C100090E00E949A24089583E090E00E949A2424
:101C2000089584E090E00E94A2240895BC0184E01D
:101C300090E00E94D6240895AB01BC018FE090E0B3
:101C40000E94CA240895AB01BC0183E190E00E9488
:101C5000CA24089560E070E0CB010E94230E08952D
:101C600060E070E0CB010E941C0E0E942A0E0895D5
:101C7000A8E0B0E0EEE3FEE00C94492465EE7EEFD0
:101C800080E090E00E94D62460E082E090E00E9434
:101C9000B82481E090E09093C5018093C40161E095
:101CA00083E090E00E94B82460E074E184E090E07A
:101CB0000E94D62460E086E090E00E94B82460E0B4
:101CC00087E090E00E94B82440E050E0BA0188E04C
:101CD00090E00E94CA2460E083E290E00E94B82471
:101CE00060E08CE090E00E94B82460E08DE090E03D
:101CF0000E94B82419821A821B821C821D821E82B5
:101D00001F82188648E050E067E170E0CE0101963E
:101D10000E94A82440E050E0BA018FE190E00E94C8
:101D2000CA240E94300E2896E2E00C9465240E949A
:101D3000380E0895682F8EE090E00E94B824089530
:101D4000A6E0B0E0E6EAFEE00C9447240E940F1DF6
:101D50008C0180915C0290915D028017910779F06F
:101D600019821A820E940F1DBC0149815A8180E0AC
:101D700090E00E94A60410935D0200935C022696F8
:101D8000E4E00C9463240E941B1D60936C0270932A
:101D90006D0280936E0290936F026093680270935D
:101DA000690280936A0290936B02089508950895E2
:101DB0000E94D60E089508950E94DB0E089588EBC8
:101DC00091E10E9422130E94D70E0E94D80E08951E
:101DD00081E008950E94E80E08950E94E80E08959B
:101DE000089508950E94F00E0E94F10E08950E9439
:101DF000FC0D811102C00E94970E0E94070E809375
:101E000070020E94110E90939F0280939E020E9486
:101E100042130E940C0E90E00E94A9088091C2011A
:101E20009091C3010E94CA0808950E94061D0E9455
:101E300075120E94F70E0E9478040E94DC0E08952D
:101E4000A6E0B0E0E6E2FFE00C943D240E94EA0E3A
:101E500081110CC00E94A00E0E9417140E941A1833
:101E60000E948D042696EEE00C9459240E948B1259
:101E70002EE5822E22E0922E640110E0F601E19020
:101E8000F1906F01812F0E94C2111F5F153009F47C
:101E90004DC0E816F90691F38091700281FD0E9411
:101EA000CB110E94ED0E782EF12C662463948F2DB9
:101EB0000E94C2118C01F401A190B1904F018A15CA
:101EC0009B0569F1A826B926E12CCC24C394D12C1A
:101ED000C5018C219D21892BC1F07720B1F0E982C9
:101EE000FA820E940F1D9C838B836D8221E0C801C2
:101EF0008C219D21892B09F420E049815A816B8135
:101F00007C818D81922F0E94A604E394CC0CDD1C71
:101F1000FEE0EF12DDCFF401329711830083F394DA
:101F200085E0F812C4CF0E94C30E96CFE816F906DA
:101F300009F0B2CF8FCF1F93CF93DF930E94C510CC
:101F4000EC01811522E5920708F053C0811540E5A8
:101F5000940708F0DDC0803E9105F8F48D3C9105B2
:101F600008F0AEC0883A910580F4853A910508F0F2
:101F700099C08130910521F00497813A910550F480
:101F8000CE01DF91CF911F910895885A91094B9707
:101F900008F48BC0C0E0D0E0F3CF811550E4950782
:101FA000F8F4C11580E2D80708F0CBC0C83ED105CF
:101FB00038F3CE019A9581159F4160F78D2F0E94CD
:101FC0006911182FCE0199270E94C510212F30E0EA
:101FD000322F2227E901CC27DF71C82BD92BD0CF94
:101FE00099270E94C510CC27DF70C82BD92BD06A47
:101FF000C7CF803842E59407C8F5803652E595078B
:1020000008F067C0C03482E5D807B0F08C2F869501
:102010008695877020E2829FC0011124C37021E061
:1020200030E0A90102C0440F551FCA95E2F7EA014A
:10203000C82BD92BDC68A4CFC03252E5D50708F0F5
:1020400041C08C2F8695869520E2829FC001112485
:10205000C37021E030E0A90102C0440F551FCA95AA
:10206000E2F7EA01C82BD92BDD688ACF803C52E524
:10207000950760F48F71C03AD24508F03FC090E0F8
:10208000982F8827EC01C46FD06A7ACF805C924584
:10209000809708F07FCFDC2FCC27CC27DF71C06F73
:1020A000D06A6ECFA497D0646BCFC85AD0E0CC0F63
:1020B000DD1FC35BDE4F0990D881C02DD46460CF93
:1020C000D0655ECFCF71D0E0DC2FCC27C16FD06A56
:1020D00057CF86958695877020E2829FC001112494
:1020E000C37021E030E0A90102C0440F551FCA951A
:1020F000E2F7EA01C82BD92BDA6842CF0E946911B6
:10210000C82FD0E0DC2FCC27CC27DF71D06238CFAE
:102110008F710E94691165E0D695C7956A95E1F7C0
:10212000CF70D0E0DC2FCC27282F30E084FF05C013
:1021300054E0220F331F5A95E1F7C22BD32BD069FD
:102140001FCF8D2F8F710E946911182FCE019927F3
:102150000E94C510212F30E0322F222722273F7105
:10216000282B392BE901D2CF462F672F753028F461
:102170004E3018F40E947203089580E090E00895B4
:102180000E94B4100E949B0F0895803E9105D1F1EA
:10219000C8F48133910509F47FC048F48932910570
:1021A00009F46FC08A32910509F47DC0089589331E
:1021B0009105E1F082389105C9F08533910509F464
:1021C0005BC00895843E9105D1F148F4823E9105AB
:1021D00031F1833E910541F181EE90E00895863E14
:1021E0009105C1F1873E9105E1F1089520919E028C
:1021F0002370211165C020919F0223FF14C089E242
:1022000090E0089520919E0220FD43C030919F02EE
:1022100030FF09C024FF4EC080E090E00895209177
:102220009E0222FDF7CF089520919E0222FD45C017
:1022300030919F0230FD44C024FFF5CFEDCF2091B7
:102240009F0221FFF0CF80919E0284FDE5CF87EEB3
:1022500090E0089520919E0223FFE5CF24FDDCCF7E
:10226000F6CF20919E0223FD2EC030919F0231FFB8
:10227000E3CF84EE90E0089520919E0225FFD3CF16
:10228000BECF20919E0225FD21C020919F0223FFF9
:10229000CACF89E390E0089520919E0226FFC3CF24
:1022A0008AE290E0089520919E0226FFBCCF81E350
:1022B00090E0089583EE90E0089582EE90E0089516
:1022C00080EE90E0089586EE90E0089585E390E03A
:1022D000AACF90919E0292FF10C041E0282F247156
:1022E000243009F040E031E0282F2871283009F02F
:1022F00030E0431711F02CE0822793FF10C041E03B
:10230000282F2471243109F040E031E0282F287172
:10231000283109F030E0431711F02CE0822730918A
:102320009F0230FF10C051E0282F2171213009F0A9
:1023300050E041E0282F2871283009F040E0541780
:1023400011F029E0822731FF10C041E0282F2171D0
:10235000213109F040E031E0282F2871283109F0BF
:1023600030E0431711F029E0822794FD877E08951D
:1023700080E0089508950E94BA11089508950E947A
:10238000BE110895E82FF0E0EE0FFF1FE655FD4F58
:10239000808191810895089580E58A95F1F70895E7
:1023A00000C008950E94CC110895F894E82FE2959A
:1023B000EF70F0E041A18F7021E030E0B90102C080
:1023C000660F771F8A95E2F7CB01962F909594239D
:1023D00091A392A1892B82A3789408950F931F93C0
:1023E000CF93DF93C1E9D1E089918F3F11F00E9433
:1023F000D51181E0C639D807B9F7C3E8D1E001E9C2
:1024000011E089918F3F11F00E94D5110C171D0723
:10241000C1F7DF91CF911F910F910895A0E0B0E037
:10242000E4E1F2E10C944224EC01B62E062F10E018
:10243000C8018F569E4F7C01FC0180818F3F09F4BB
:102440004FC0F894E82FE295EF70F0E091A18F7003
:1024500021E030E001C0220F8A95EAF7892F822B14
:1024600081A382A12095282322A378940E94D011D1
:10247000E3E8F1E041E050E0C12CD12C21912F3F65
:1024800089F0A22FA295AF70A05EB0E08C9190E091
:102490002F7002C0959587952A95E2F781709A0171
:1024A000882311F020E030E0C22AD32A440F551FC0
:1024B00081E0E139F80711F7F70180818F3F11F0D2
:1024C0000E94D51161E0C114D10409F460E08B2DA4
:1024D0000E94D211000F111FC00FD11FD982C882D4
:1024E000CDB7DEB7E9E00C945E240E94EE118AE0DD
:1024F000EAEAF2E0DF01982F1D929A95E9F7E0EA07
:10250000F2E0DF011D928A95E9F785E00E94C8128A
:102510000E94BB110895AAE0B0E0E1E9F2E10C9459
:102520004624FE0131968AE0DF011D928A95E9F783
:1025300010E0FE2E0F2F612F8F2D902F0E940E1274
:102540001F5F1530C1F74AE050E06F2D702F80EA11
:1025500092E00E94842421E0892B81F420E045E070
:102560006AEA72E080EA92E00E94C912182F0E9483
:10257000BF11812F2A96E5E00C9462248AE0EF2DAA
:10258000F02FA0EAB2E001900D928A95E1F7E7CF33
:102590000895A0E0B0E0EFECF2E10C944324D82ED3
:1025A000E92EF62ED72F042FC22F222379F081E0B7
:1025B000809373020E940F1D9093720280937102A8
:1025C00080E0CDB7DEB7E8E00C945F24C0907302E2
:1025D000CC20B1F380917102909172020E94381D5B
:1025E000059770F310E0000F111FA8016D2D7E2DCF
:1025F0008F2D9D2F0E948424892B41F0A8016D2DE1
:102600007E2D8F2D9D2F0E949124CC2D1092730230
:102610008C2FD7CF0E94200F08950E94A81C0E94E3
:10262000E31E0E94DF0E0E94FD1E0E94150F0E94F5
:102630000A1F0E940F1F0E940A130E94291F0E9456
:10264000F20EF7CF909397018093960108950E9420
:10265000F50D089580E00E94C211817008950E94D6
:102660008B128FE59AEE0197F1F700C000000E94EF
:102670008B120E942A13882321F00E9427130E94A4
:102680006B1D08950E942F1308959C018D329105B2
:10269000B9F080F48832910548F44E9748F42450FC
:1026A00031092A31310560F080E008958A97E1F719
:1026B00081E008958C349105D9F32D323240F7CF63
:1026C00082E00E94DD0CF4CFEF92FF920F931F93F4
:1026D000CF93DF93EC017B0183379C4759F4FB01D7
:1026E000858181110E94291480E0CDB7DEB7E6E034
:1026F0000C9461240E94C90C182F0E94EE0C082F24
:102700000E94F613882371F10E94ED13F701858171
:10271000882341F1102B1D7911114EC0C115F0E530
:10272000DF0798F4C11520E4D20708F04DC0C63E7B
:10273000D105C1F0CE01905281159042D8F4F70135
:102740008681803170F1DD2715C0C43BF2E5DF07DB
:1027500049F0D0F4C03482E5D80730F4C115E2E581
:10276000DE0740F081E0C1CFCE0180569245803433
:102770009105C0F30E94EB0CCE010E944513882303
:10278000D9F00E94860DEECFC03EF2E5DF0720F4BF
:10279000CF3B22E5D207E5CFCE0187579C47019773
:1027A000E8CF8D2F8F718431E9F248F4823091F0B7
:1027B000C5EED0E08231F1F20E940A14D3CFC6EE0A
:1027C000D2E18631B9F2F8CFF7018681803108F085
:1027D000BACFC8CFC1EED0E0CDCF0E940F1D885731
:1027E0009C4E9093750280937402089580917602B6
:1027F000089508958091760281110BC00E94DA0C31
:102800000E941F0D0E94ED1381E0809376020E94CA
:10281000F913089580917602882341F082E20E94A4
:102820003D081092760280E00E94F913089580918D
:102830007602882369F00E940F1D20917402309166
:102840007502821B930B8F3F9F4710F40E940A145E
:10285000089580917602882319F00E940A14089541
:102860000E94FA130895EBEFE80FEF3308F066C00B
:10287000F0E0EE5FFA4D0C9433240E94970E81E055
:10288000089580917002807F8093700281E0809330
:102890007A02F5CF0E94EF03F2CF90917002892F58
:1028A0008E7F90FF81608093700280FDE8CF817FF2
:1028B00080937002E4CF90917002892F8D7F91FFF9
:1028C00082608093700281FFDACF80917002816014
:1028D000EFCF90917002892F8B7F92FF846080935D
:1028E000700282FDF2CFCBCF90917002892F877F4B
:1028F00093FF88608093700283FDE7CFC0CF0E9472
:102900005A0890919E02892F97FB87F980588093EF
:102910009E02B5CF81E090E00E94A9080E945A086B
:10292000AECF895321E030E0A90102C0440F551F0A
:102930008A95E2F7CA01F0CF8D51F4CF80E0089577
:1029400080E008950E94A0140895CF93C82F80912D
:102950007A028130A1F08230A9F18111BAC00E94BF
:10296000C90C823209F0B7C08C2F0E94A0148111CB
:1029700011C08C2F0E9433148170CF9108950E9452
:10298000C90C823289F38C2F0E94A214882329F06B
:1029900081E0F2CF81E090E0EFCFC43161F030F41C
:1029A000CB30B1F3C03151F080E0E6CFC93219F03D
:1029B000C83371F3F9CF10927A02F6CF82E0809398
:1029C0007A02E6CFCF3409F471C068F4C83248F413
:1029D000CE3150F5C73009F44BC0C431D1F081E09D
:1029E000CCCFC932FBCFC13509F455C091E0C23517
:1029F00009F45DC0C03599F7E0917702F091780253
:102A0000309769F380818A50990B97FF60C01082DC
:102A1000E6CF80917902882311F310927902109207
:102A2000780210927702DBCFCD51C0937902C43087
:102A3000C9F078F48AE091E0C23031F089E091E0A9
:102A4000C33011F08BE091E090937802809377028D
:102A5000C6CFC53051F084E091E0C630A9F31092A2
:102A60007902BDCF88E091E0EFCF85E091E0ECCF37
:102A700081E080930B0184E180930A018AE08093D6
:102A800009018EE18093080188E08093050188E2C6
:102A900080930401A4CFE0917702F09178023097FF
:102AA00009F49DCF80818150990BAFCF9AE0E091DE
:102AB0007702F0917802309709F491CF8081890FE5
:102AC0009927991F8F3F910511F00CF08FEF8083AC
:102AD00086CF10927A0280E050CFCF93DF93EB0144
:102AE00086319C4719F50E94C90C9D819923A1F05C
:102AF0008A7A91E0811101C090E090937B02882353
:102B000049F085E30E94F81B0E94860D80E0DF916A
:102B1000CF91089589E2F6CF80917B02882321F03E
:102B200085E30E940F1CF0CF89E2FBCF81E0EFCF5D
:102B3000CF93DF93EC01FB018581882309F4D2C098
:102B40009E0130572332310508F0B2C00E94110EA9
:102B500090939F0280939E02FE01E150F047E23283
:102B6000F10520F4EF5BFA4D0C94332480919E0222
:102B7000816080939E0293C080919F0288608093C1
:102B80009F028DC080919E028260F3CF80919E0251
:102B90008460EFCF80919E028860EBCF80919F028E
:102BA0008160EDCF80919F028260E9CF80919E028B
:102BB0008061DFCF80919E028062DBCF80919E0298
:102BC0008064D7CF0E945A0880919E028068D1CF3E
:102BD00080919E028C60CDCF80919F028360CFCF89
:102BE00080919E028E7FC5CF80919F02877FC7CF45
:102BF00080919E028D7FBDCF80919E028B7FB9CF49
:102C000080919E02877FB5CF80919F028E7FB7CF44
:102C100080919F028D7FB3CF80919E028F7EA9CF3E
:102C200080919E028F7DA5CF80919E028F7BA1CF48
:102C30000E945A0880919E028F779BCF80919E02BE
:102C4000837F97CF80919F028C7F99CF80919E0246
:102C500082FB992790F921E0922790FB82F990FB63
:102C600083F987CF80919F02982F909591708E7FE6
:102C7000892B90FB81F983CF90919E02892F8F7BC6
:102C800096FF806476CF0E945A0890919E02892F09
:102C900097FB87F980586DCF81E00E949A0E809152
:102CA0009E0290919F020E94160E0E945A0880E098
:102CB000DF91CF91089580E0F0CF90919E02892F0F
:102CC0008F7E94FF806155CF90919E02892F8E7FD9
:102CD00090FF81604ECF90919F02892F877F93FF55
:102CE00088604DCF81E0E4CF282F35EB2303C0016E
:102CF000112497FF04C080589109892F08958058A6
:102D00009F4FFBCF8091820280FF0DC0609109012F
:102D100070E0660F771F60387105C0F561157105A9
:102D2000B9F1862F089581FF07C06091090184E001
:102D3000689FB0011124EFCF82FF04C060910901A8
:102D400088E0F6CF809181028823E9F09091080114
:102D50006091090170E0891730F093E0660F771FEA
:102D60009A95E1F7D8CF869F9001879F300D112467
:102D700083E0220F331F8A95E1F7692F70E0C901C4
:102D80000E941F24C8CF68E070E0CBCF8FE7089582
:102D900081E008958091820280FF0CC0609105015E
:102DA00070E075956795759567956115710561F189
:102DB000862F089581FF06C06091050170E075952A
:102DC0006795F3CF6091050170E082FD15C02091F9
:102DD00080022223B1F0909104016091050170E01E
:102DE000291750F4269FA001279F500D1124692F09
:102DF00070E0CA010E941F2460387105B0F28FE7AD
:102E0000089561E070E0D4CF81E00895909185024B
:102E100020918602922B20918802922B209187028A
:102E2000922B992331F098E09093810291E0909356
:102E300080028D3C31F40E94821681958093860237
:102E40000895E2E3E80FE231B0F5F0E0ED59FA4D14
:102E50000C9433240E948216F1CF0E948216819531
:102E60008093850208950E948216FACF0E94CA16A6
:102E70008093870208950E94CA168195F9CF0E9417
:102E8000CA1681958093880208950E94CA16FACFC7
:102E9000815D990B21E030E001C0220F8A95EAF7AD
:102EA00080918402822B8093840208958091820213
:102EB0008160809382020895809182028260F9CFBE
:102EC000809182028460F5CF409185028D3C59F457
:102ED0008091860287FF0DC010928602442359F428
:102EE0001092810208C08E3C81F4809186021816EF
:102EF0009CF3442381F08091870290918802892B72
:102F0000811159C01092800208958F3C41F447FF0F
:102F1000F0CF10928502809186028823E0CF803D19
:102F200019F41416B4F3E5CF90918702893D29F482
:102F30001916FCF610928702DCCF8A3D19F497FF30
:102F4000D8CFF8CF909188028B3D29F497FFD1CF4D
:102F500010928802CECF8C3D19F41916CCF3C9CF4C
:102F60009FE2980F983090F4815D990B21E030E05A
:102F7000B90102C0660F771F8A95E2F7CB018095F1
:102F800090918402892380938402B3CF8D3D31F4E4
:102F9000809182028E7F80938202ABCF8E3D21F49E
:102FA000809182028D7FF7CF8F3D09F0A2CF809173
:102FB00082028B7FF0CF08950E940F1D2091850221
:102FC00030918602232B222321F080937E0290935E
:102FD0007F022091870230918802232B222321F047
:102FE00080937C0290937D0283E892E00E94EE1A27
:102FF000089586E0E3E8F2E0DF011D928A95E9F7A3
:103000001092810210928002109282020895FC01B7
:10301000828181110DC0838181110AC08481811157
:1030200007C081E09581911101C080E08170089511
:1030300081E0FCCFA6E0B0E0E0E2F8E10C944624A9
:1030400086E0E3E8F2E09E012F5F3F4FD901019057
:103050000D928A95E1F710928502109286021092E5
:103060008702109288028B819C81892B8901882399
:1030700091F080917E0290917F020E94381D9C0108
:10308000809181028823C9F140910A0150E04217E2
:10309000530708F43FC08D819E81892B882399F0C6
:1030A00080917C0290917D020E94381D9C0180914C
:1030B0008002882309F467C04091060150E042175E
:1030C000530708F46EC0B80183E892E00E94401CE8
:1030D000811105C083E892E00E94071881110E94C7
:1030E000DC1786E0F801A3E8B2E001900D928A9522
:1030F000E1F72696E5E00C94622440910B019AE0FA
:10310000499FA00111244217530728F68F5F80932F
:10311000810202C08F3FD1F7FB80FF2059F00E944F
:10312000821691E01F140CF09FEF899F802D1124CF
:1031300080938502FC80FF2059F00E94821691E066
:103140001F140CF09FEF899F802D1124809386021D
:1031500080918502882309F49ECFF0908602FF209B
:1031600009F499CF0E947416811101C081E0809307
:1031700085028F2D0E947416882319F08093860291
:103180008ACF81E0FBCF409107019AE0499FA001DF
:1031900011244217530708F096CF8F5F8093800267
:1031A00002C08F3FD1F7FD80FF2059F00E94CA1660
:1031B00091E01F140CF09FEF899F802D11248093C4
:1031C0008702FE80FF2059F00E94CA1691E01F146A
:1031D0000CF09FEF899F802D1124809388028091AD
:1031E0008702882309F46FCFF0908802FF2009F44A
:1031F0006ACF0E947416811101C081E0809387021A
:103200008F2D0E947416882319F0809388025BCF5B
:1032100081E0FBCFA0E0B0E0E0E1F9E10C944224D2
:10322000E82FF0E0E657FC4FB490282F269526951E
:10323000269530E0F901E65DFB4F0491877010E0C0
:10324000082E02C0159507950A94E2F70170112720
:10325000F901E65EFB4FE490F12C082E02C0F594D4
:10326000E7940A94E2F791E0E922FF24F901E65F8E
:10327000FB4FC491D0E002C0D595C7958A95E2F77F
:10328000C170DD27C62ED12C0115110549F5E114B9
:10329000F10431F086EE0E94E904C601009771F551
:1032A000B6018B2D0E94D505C601009779F5E11472
:1032B000F104A1F50115110531F081EE0E947B05A5
:1032C000C6010097C9F5CD2B31F08CE20E94ED05C7
:1032D000C114D104C9F5CDB7DEB7E9E00C945E2482
:1032E00081EE0E94E904C601009789F2EFECF7E055
:1032F0003197F1F700C000000197F6CFEFECF7E04F
:103300003197F1F700C000000197C8CFEFECF7E06C
:103310003197F1F700C000000197C7CF86EE0E94F9
:103320007B05C601009731F2EFECF7E03197F1F73A
:1033300000C000000197F6CFEFECF7E03197F1F70E
:1033400000C000000197BDCF8FEC97E00197F1F727
:1033500000C0000091E0C91AD108BACFFF920F93C4
:103360001F93CF93DF938C01F62EF801849188236D
:1033700009F450C0813009F048C0E8012196FE01EF
:103380008491813049F42196FE0184910E94ED05DB
:103390008E010F5F1F4FE9CF823039F4E80122968A
:1033A000FE0184910E94E904F3CF833039F4E801EF
:1033B0002296FE0184910E947B05EACF843041F77A
:1033C000E8012296FE01849120E030E04AE0FE010F
:1033D00031968053990B8A30910560F021153105A3
:1033E000B9F28FEC97E00197F1F700C0000021508F
:1033F0003109F4CF429FB001439F700D11249C010D
:10340000260F371F8491EF01E2CF6F2D0E940A191A
:10341000E801BECFCDB7DEB7E5E00C9462240F9390
:103420001F93CF93DF93C42FD22FFC018581882374
:10343000C9F040938B020E940F1D90938A028093E3
:10344000890280E28C0F883040F4C77081E001C0AF
:10345000880FCA95EAF70E94F605DF91CF911F9178
:103460000F91089510918B0214133CC08091890232
:1034700090918A020E94381D883C910598F5C0E21F
:10348000CD0F1D1741F180E2810F883040F4177095
:1034900081E001C0880F1A95EAF70E94FD05C83047
:1034A00020F0802F0E94ED05D8CF91E08D2F8770FE
:1034B00001C0990F8A95EAF7892F0E94F605802F9F
:1034C0000E94ED05D77081E001C0880FDA95EAF718
:1034D0000E94FD05C2CF802F0E94ED05C83008F084
:1034E000BCCFF0CF80E28C0F883008F0B6CFC77029
:1034F00081E001C0880FCA95EAF7EACF0F93FC017B
:10350000CB01E851FC47E730F10590F5EB58FA4D57
:103510000C94332406E221EE41EE6AE17CE70E943E
:103520000F1A80E00F91089507E225EE45EE6BE15A
:103530007CE7F5CF06E221EE40EE68E17CE7EFCFD5
:1035400007E225EE44EE69E17CE7E9CF06E221EEF1
:1035500042EE6CE17CE7E3CF07E225EE46EE6DE15B
:103560007CE7DDCF08E221E045EE6EE17CE7D7CFD6
:10357000FB018581811110928B0281E0D3CF909362
:103580009102809390020895E0919002F09191024F
:10359000309729F00190F081E02D0995089580E0A1
:1035A00008950E94C41A0895E0919002F09191024A
:1035B000309721F00280F381E02D09950895DC0118
:1035C000E0919002F0919102309739F086E08C936F
:1035D0000480F581E02DCD0109950895DC01E0918D
:1035E0009002F0919102309739F082E08C9306803E
:1035F000F781E02DCD0109950895A3E0B0E0E3E067
:10360000FBE10C9449249C0180918E0290918F02E1
:1036100082179307A1F030938F0220938E02E091DE
:103620009002F0919102309751F083E089833B83BF
:103630002A830084F185E02DCE0101960995239619
:10364000E2E00C946524A3E0B0E0E9E2FBE10C9435
:1036500049249C0180918C0290918D0282179307DE
:10366000A1F030938D0220938C02E0919002F091B2
:103670009102309751F084E089833B832A83008450
:10368000F185E02DCE01019609952396E2E00C9498
:10369000652420910201309103012E5F3F4F8091FC
:1036A00016018823A9F080919E0287FF11C0209106
:1036B0000001309101012E5F3F4F9DE180E0F90153
:1036C00040812F5F3F4F41118F5F9150C0F70895A8
:1036D00095E0F4CF882321F190911601992311F1FF
:1036E00090919E0297FF1EC0982F9695969596955D
:1036F000803FB0F4E0910001F0910101E90FF11D6C
:10370000228130E0877041E050E0BA0102C0660FCC
:10371000771F8A95E2F72623372381E0232B91F444
:1037200080E008952091020130910301F901329661
:10373000285F3F4F9191981721F0E217F307D1F7D7
:10374000EFCF81E008959C01FC0132968FEF90E06D
:103750004191461751F08F3F19F4411101C0892F53
:103760009F5F9630A9F78F3F09F40895280F311D08
:1037700087FD3A95F901628308959C01FC01329618
:10378000285F3F4F8191861303C0DF0111971C9280
:10379000E217F307B9F70895FC01862F8695869501
:1037A0008695603F60F4E80FF11D677021E030E01E
:1037B00001C0220F6A95EAF78281822B82830895E5
:1037C000FC01862F869586958695603F80F4E80FEC
:1037D000F11D677081E090E09C0102C0220F331F51
:1037E0006A95E2F7B9016095828168236283089542
:1037F000682F80911601882359F080919E0287FFDF
:1038000007C080910001909101010E94CC1B089596
:1038100080910201909103010E94A31B0895682FDB
:1038200080911601882359F080919E0287FF07C07E
:1038300080910001909101010E94E01B0895809108
:103840000201909103010E94BD1B08958091160111
:10385000882379F080919E0287FF0BC0E0910001E0
:10386000F091010132968EE1DF011D928A95E9F710
:103870000895E0910201F0910301329686E0F4CFC1
:10388000DC01FB0111969C9111978181981322C054
:1038900012968C911297882319F0928189131AC07D
:1038A00013968C911397882319F09381891312C072
:1038B00015968C911597882319F0958189130AC064
:1038C00014969C91992321F081E02481291303C04F
:1038D00080E001C081E08170089508950E946D1C10
:1038E00008958F5F809392020E946E1C089583E07A
:1038F000809392020E946E1C08950E94711C08958C
:1039000081E0809392020E946E1C08950E94801CA8
:103910000895089508950E948A1C089508950895B1
:103920000E94891C0895CF930E948E1C0E948B12C6
:103930000E948F1CC0E08C2F0E94C211892B31F491
:10394000CF5FC530C1F780E0CF91089581E0FCCF13
:1039500085B7806885BF85B7806885BF08951F9249
:103960001FB61F9211248F939F93AF93BF938091A3
:103970009302811113C08091B4029091B502A0917D
:10398000B602B091B7024196A11DB11D8093B40259
:103990009093B502A093B602B093B702BF91AF91D6
:1039A0009F918F911F901FBE1F9018958091BC0210
:1039B000843031F10E9456041092930288E190E025
:1039C00020E40FB6F894A895809360000FBE209372
:1039D000600083B7817F846083BF83B7816083BFCA
:1039E0007894889583B78E7F83BF0FB6F894A89597
:1039F00080916000886180936000109260000FBE2B
:103A000008950E945A080E945B04089582E084BDD4
:103A100093E095BD9DE797BD80936E0008952FB705
:103A2000F8948091B4029091B502A091B602B09141
:103A3000B7022FBF0895A4E0B0E0E1E2FDE10C94ED
:103A400049248FB7F8942091B4023091B502409187
:103A5000B6025091B70229833A834B835C838FBFB0
:103A600069817A818B819C812496E2E00C946524A3
:103A70009C014FB7F8948091B4029091B502A09147
:103A8000B602B091B7024FBF821B930B0895789492
:103A90001F921FB61F9211248F939F93AF93BF93D2
:103AA0008091B4029091B502A091B602B091B70294
:103AB0000196A11DB11D8093B4029093B502A0930D
:103AC000B602B093B702BF91AF919F918F911F90B3
:103AD0001FBE1F90189581E08093E00080E28093E4
:103AE000D8001092C9008FE097E20197F1F700C06B
:103AF000000087E090EBDC018093C5029093C60242
:103B0000A093C702B093C80288E19CE00FB6F89476
:103B1000A895809360000FBE90936000FFCF88E16E
:103B20009CE00FB6F894A895809360000FBE909328
:103B30006000FFCF80919C020895282FCB01BA012D
:103B40003091BC023430E1F42F702093E9002FEF64
:103B50003091E80035FD07C03AE63A95F1F700C02C
:103B600021502111F5CF2091E80025FF09C040E048
:103B700050E00E94A01F8091E8008E778093E800BB
:103B80000895BC0143E050E082E00E949D1D08952D
:103B9000BC0146E050E082E00E949D1D0895BC01FA
:103BA00040E250E082E00E949D1D0895CF93DF9394
:103BB000D82FC92F48E050E0682F792F81E00E946C
:103BC0009D1D88E0ED2FFC2FA4E9B2E001900D923D
:103BD0008A95E1F7DF91CF9108958091BB02811121
:103BE00009C00E9428210E9485218091E200846002
:103BF0008093E20008951092BB0208950E94801CF9
:103C000008956091B80281E0611101C080E00E94D6
:103C1000771C08959091BC0281E0943009F080E017
:103C20006091B8020E947D1C089542E061EC81E041
:103C30000E94A42042E261EC82E00E94A4209091C4
:103C4000BC0281E0943009F080E06091B8020E94EB
:103C5000711C08958091BE02893089F148F4823048
:103C600009F4A0C0833009F45AC0813041F00895AE
:103C70008A3009F487C08B3009F46CC008958091B4
:103C8000BD02813A09F04AC08091E800877F8093A5
:103C9000E8008091C1029091C202892B61F060E03E
:103CA00080E090E070E00E94EF1F8091E8008B7749
:103CB0008093E800089568E084E992E0F3CF809172
:103CC000BD02813259F58091C1029091C2020297E2
:103CD00028F58091E800877F8093E8008091E800D4
:103CE00082FF18C09091F3008091F200029731F4A6
:103CF0008091F100813011F0863021F48091F10043
:103D000080939C028091E8008B778093E8000E946A
:103D1000D82004C08091BC028111E0CF0895809129
:103D2000BD02813AD9F78091C1029091C202892BDC
:103D3000A9F78091E800877F8093E8008091E800F0
:103D400080FFFCCF809116018093F1008091E80004
:103D50008E77DBCF8091BD02813201F78091C10265
:103D60009091C202892BD1F68091E800877F8093E1
:103D7000E8000E94D8208091BF02809316010E9423
:103D80005A0808958091BD02813241F68091E80081
:103D9000877F8093E8000E94D8208091C0028093A2
:103DA0009D0208958091BD02813A09F0B7CF8091BC
:103DB000E800877F8093E8008091E80080FFFCCFD7
:103DC00080919D02C1CF84B7877F84BF0FB6F894DE
:103DD000A8958091600088618093600010926000D7
:103DE0000FBE80E890E00FB6F89480936100909346
:103DF00061000FBE0E94861C08950E9428210E9427
:103E00008521E2EEF0E080818460808378940E94D6
:103E1000052408958CE091E00E94BF1A08958091D6
:103E2000BC02853031F48091BC02853019F00E94CB
:103E3000011D08950E94D61C8091BA02882399F32F
:103E40000E94931C882379F30E948B1F0E945A08BA
:103E5000EACF08959A014091C3025091C4020E9492
:103E6000321F0895AC01CB01D901252F3327233010
:103E70003105E1F058F421303105C9F12230310526
:103E8000D9F180E090E020E030E01EC02132310521
:103E900021F122323105A9F7892BC1F16130710579
:103EA00081F786EB90E02DEB34E00EC0CA01992734
:103EB000413069F08230910569F0ECE6F4E0892B3D
:103EC00001F7849190E09F012D933C930895ECE4D9
:103ED000F4E0F7CFEAE3F4E0F4CF892B91F061301E
:103EE000710579F689E090E02BE934E0EDCF82E1CD
:103EF00090E02BEA34E0E8CF8BE390E020E734E079
:103F0000E3CF89E090E022E834E0DECF84E490E083
:103F100023E735E0D9CF19BC82E089BD09B400FEA2
:103F2000FDCF8091D8008F7D8093D8008091E000F4
:103F300082608093E0008091E00081FDFCCF0895D5
:103F4000AF92BF92CF92DF92FF920F931F93CF93C6
:103F5000DF936C01EB018A010E94F720F82E81119A
:103F600023C00115110539F0F80180819181C81B2A
:103F7000D90BC80ED91EA12CB12C2097A9F0809185
:103F8000E80085FD22C08091E8008E778093E800EC
:103F900001151105A1F0F801808191818A0D9B1D09
:103FA0009183808385E0F82E8F2DDF91CF911F9133
:103FB0000F91FF90DF90CF90BF90AF9008950E9437
:103FC000F7208823E1F2F82EEFCFF60181916F01FF
:103FD0008093F1002197FFEFAF1ABF0ACECFFC010B
:103FE0009B018091C3029091C4028617970718F035
:103FF000672B61F0C90140E0009771F441110CC0DA
:104000008091E80082FF35C080E008958091E8004B
:104010008E778093E800EECF2091BC022223A9F195
:104020002530A9F12091E80023FD2DC02091E80062
:1040300022FDE6CF2091E80020FFDECF3091F30093
:104040002091F200009719F02830310558F041E036
:104050002830310509F040E02091E8002E772093C8
:10406000E800CACF41914093F10001972F5F3F4F85
:10407000E9CF8091BC02882341F0853041F08091E6
:10408000E80083FFBDCF81E0089582E0089583E0DA
:104090000895FC019B018091C3029091C402861790
:1040A000970718F0672B61F0C90140E0009771F4A1
:1040B00041110CC08091E80082FF36C080E0089575
:1040C0008091E8008E778093E800EECF2091BC02CB
:1040D0002223B1F12530B1F12091E80023FD2EC05B
:1040E0002091E80022FDE6CF2091E80020FFDECFFE
:1040F0003091F3002091F200009719F0283031053B
:1041000058F041E02830310509F040E02091E80006
:104110002E772093E800CACF44914093F100319666
:1041200001972F5F3F4FE8CF8091BC02882341F079
:10413000853041F08091E80083FFBCCF81E0089595
:1041400082E0089583E00895982F973028F08F70CB
:104150008093E90081E008959093E900242F762F61
:1041600050E0981731F07091EC002091ED005091E3
:10417000F00021FD02C09F5FE8CF3091EB003E7F51
:104180003093EB003091ED003D7F3093ED003091A6
:10419000EB0031603093EB007093EC002093ED0066
:1041A0005093F0002091EE0027FDE5CF80E00895C8
:1041B0008091BD0287FF13C08091E80082FF06C096
:1041C0008091E8008B778093E80004C08091BC0266
:1041D0008111F2CF08958091BC028823D9F3809198
:1041E000E80080FFF8CF8091E8008E77ECCF209137
:1041F000E4003091E50095E6A9018091EC00817022
:10420000882331F08091E80080FF06C080E00895A7
:104210002091E80022FD1BC08091BC02882391F010
:10422000853091F08091EB0085FD10C02091E40075
:104230003091E5004217530701F391509111DCCF03
:1042400084E0089582E0089583E0089581E0089570
:104250000E9497210E949F21E0EEF0E08081816022
:104260008083E8EDF0E080818F77808319BCA7ED33
:10427000B0E08C918E7F8C9380818F7E80831092B2
:10428000BB0208950F931F93CF93DF930E94972152
:104290000E949F21C8EDD0E088818F778883888134
:1042A0008068888388818F7D888319BC1092BC02C6
:1042B0001092B8021092BA021092B90200EE10E009
:1042C000F80180818B7F808388818160888342E0D0
:1042D00060E080E00E94A420E1EEF0E080818E7F2B
:1042E0008083E2EEF0E0808181608083808188605D
:1042F0008083F80180818E7F8083888180618883BC
:10430000DF91CF911F910F910895E8EDF0E080814A
:104310008F7E8083E7EDF0E080818160808384E0A0
:1043200082BF81E08093BB020E9442210895E8EDA4
:10433000F0E080818E7F80831092E20008951092D9
:10434000DA001092E10008951F920F920FB60F92BB
:1043500011242F933F934F935F936F937F938F938A
:104360009F93AF93BF93EF93FF938091E10082FF00
:104370000BC08091E20082FF07C08091E1008B7F3B
:104380008093E1000E9404248091DA0080FF18C02D
:104390008091D80080FF14C08091DA008E7F8093D6
:1043A000DA008091D90019BC80FF91C082E089BDFC
:1043B00009B400FEFDCF81E08093BC020E94ED1D98
:1043C0008091E10080FF19C08091E20080FF15C05C
:1043D0008091E2008E7F8093E2008091E200806114
:1043E0008093E2008091D80080628093D80019BC4D
:1043F00085E08093BC020E94011E8091E10084FF51
:1044000028C08091E20084FF24C019BC82E089BDED
:1044100009B400FEFDCF8091D8008F7D8093D80035
:104420008091E1008F7E8093E1008091E2008F7E99
:104430008093E2008091E20081608093E2008091AD
:10444000B802882309F448C084E08093BC020E942B
:104450000A1E8091E10083FF29C08091E20083FF62
:1044600025C08091E100877F8093E10082E0809306
:10447000BC021092B8028091E1008E7F8093E1002F
:104480008091E2008E7F8093E2008091E200806163
:104490008093E20042E060E080E00E94A4208091EE
:1044A000F00088608093F0000E94FE1DFF91EF9164
:1044B000BF91AF919F918F917F916F915F914F913C
:1044C0003F912F910F900FBE0F901F901895109253
:1044D000BC020E94FB1D74CF8091E30087FF02C0E5
:1044E00083E0B3CF81E0B1CF1F920F920FB60F924E
:1044F0001124FF920F931F932F933F934F935F933A
:104500006F937F938F939F93AF93BF93CF93DF93DB
:10451000EF93FF9309EE10E0F8018081C091EC0069
:10452000C795CC27C7958F70FC2EF82A1082C0EF54
:10453000D0E08881877F888378940E94BD22F8012B
:104540001082888188608883CF2DCF70C083FF91CF
:10455000EF91DF91CF91BF91AF919F918F917F911B
:104560006F915F914F913F912F911F910F91FF900C
:104570000F900FBE0F901F901895AAE2B0E0E3ECE9
:10458000F2E20C9448248DEB92E0FC01019620911C
:10459000F100208322E0853C9207B9F70E942A1E91
:1045A0008091E80083FF38C08091BD029091BE02E7
:1045B0009A3090F5E92FF0E0E458FA4D0C9433244A
:1045C000803889F0823841F58091C1028F70873040
:1045D00018F58093E9008091EB0085FB882780F92E
:1045E0001092E90006C08091B9029091BA0291112F
:1045F00082609091E800977F9093E8008093F100AB
:104600001092F1008091E8008E7723C0811116C0CE
:104610008091BF02813011F18091E80083FF0AC0D0
:104620008091E800877F8093E8008091EB008062B2
:104630008093EB00AA96E3E00C946424823061F747
:104640008091BF02882389F01092E9008091E800F0
:10465000877F8093E8000E94D820DECF81E09330EE
:1046600009F080E08093BA02EFCF8091C1028F7091
:104670002FEF280F263080F68093E9002091EB0081
:1046800020FFE2CF933031F48091EB008062809381
:10469000EB00DACF9091EB0090619093EB0021E07A
:1046A00030E0A90102C0440F551F8A95E2F74093FC
:1046B000EA001092EA008091EB008860E8CF811157
:1046C000ABCF1091BF021F778091E3008078812BE0
:1046D0008093E3008091E800877F8093E8000E9448
:1046E000D8208091E80080FFFCCF8091E3008068B3
:1046F0008093E30083E0111101C082E08093BC024B
:104700008BCF8058823008F087CF8091BF02909184
:10471000C0028C3D53E0950799F583E08A838AE2D5
:1047200089834FB7F894DE01139620E03EE051E212
:10473000E32FF0E050935700849120FF03C082954F
:104740008F703F5F8F708A30C8F0895C90E08D93E6
:104750009D932F5F243161F74FBF8091E800877FE1
:104760008093E8006AE270E0CE0101960E94EF1F9C
:104770008091E8008B778093E8004ECF805DE6CF94
:104780006091C1027091C202AE014F5F5F4F0E9403
:104790002A1FBC01892B09F43FCF8091E800877F55
:1047A0008093E80089819A810E944920E1CF803876
:1047B00009F032CF8091E800877F8093E8008091F4
:1047C000B8028093F1001ECF811126CF9091BF02D5
:1047D000923008F021CF8091E800877F8093E80035
:1047E0009093B8020E94D8208091B802882331F0BB
:1047F00084E08093BC020E94151E0ECF8091E300DE
:1048000087FDF6CF81E0F5CF0895CF938091BC026C
:10481000882399F08091E900C091EC00C795CC27DE
:10482000C7958F70C82B1092E9008091E80083FD36
:104830000E94BD22CF70C093E900CF91089597FBED
:10484000072E16F4009407D077FD09D00E9470243B
:1048500007FC05D03EF4909581959F4F0895709583
:1048600061957F4F0895EE0FFF1F0590F491E02DA5
:1048700009942F923F924F925F926F927F928F9204
:104880009F92AF92BF92CF92DF92EF92FF920F93DF
:104890001F93CF93DF93CDB7DEB7CA1BDB0B0FB6E9
:1048A000F894DEBF0FBECDBF09942A8839884888A6
:1048B0005F846E847D848C849B84AA84B984C8843C
:1048C000DF80EE80FD800C811B81AA81B981CE0F33
:1048D000D11D0FB6F894DEBF0FBECDBFED01089518
:1048E000AA1BBB1B51E107C0AA1FBB1FA617B70716
:1048F00010F0A61BB70B881F991F5A95A9F7809532
:104900009095BC01CD010895FB01DC0104C08D919F
:104910000190801921F441505040C8F7881B990B31
:104920000895FB01DC0102C001900D9241505040FE
:10493000D8F70895F999FECF92BD81BDF89A9927CD
:1049400080B50895A8E1B0E042E050E00C94DE2488
:10495000DC01A40FB51F4150504048F0CB01840F3B
:10496000951F2E910E94B92441505040D0F70895D0
:10497000262FF999FECF92BD81BDF89A019700B418
:10498000021639F01FBA20BD0FB6F894FA9AF99AB8
:104990000FBE08950396272F0E94B9240E94B824C1
:1049A000252F0E94B924242F0C94B9240196272F77
:1049B0000E94B9240C94B824DC01CB01FC01F999C4
:1049C000FECF06C0F2BDE1BDF89A319600B40D925B
:1049D00041505040B8F70895F894FFCF23032C03BB
:1049E000320338033E0344034A035003420642069F
:1049F00089068906EE060B07710671061007870700
:104A0000980798074A1441144D143F149E149E149D
:104A10003F149E149E1469149E1474147F149E14E3
:104A20009E149E149E143F149E149E143F149E14B4
:104A30005B149E149E149C149C149C149C149C1433
:104A40009C149C149C149C148A149E144A143D14A7
:104A50009E149E149E149E149E149E149E149E14C6
:104A60009E149E148A149E149E143F149E14911436
:104A7000911491149114911491149114911491140E
:104A80008A14F0156416F815C215C615FC15CA155A
:104A900000160C16D6155D16DA151016DE1514164E
:104AA0003C16E21518164316E8151E162616CE15E6
:104AB0000416D2150816EC15221632164C165B1683
:104AC000BC15F4156B162A172D17331748174817FE
:104AD00048174817481748174817481736173B17FD
:104AE0003F17451756175C1760179A1AA01A8A1AAB
:104AF000941AA61AAC1AB21AE02206230C23062333
:0C4B00000C235F2381230C23D723E42324
:104B0C0032025202280850011E0A14019A1DD61DA9
:104B1C00CF1DC81DC11D01E200E900EA00B500B6B9
:104B2C0000B700CD008301CC008A019201940121D1
:104B3C0002230224022502260227022A02B300B411
:104B4C00006F0070009F01CB019F02A002E200E900
:104B5C0000EA00B500B600B700CD008301CC008A96
:104B6C00019201940121022302240225022602272C
:104B7C00022A02B300B4006F0070009F01CB019FAA
:104B8C0002A002F0313233379091929395973435DD
:064B9C0036F4F1F7F6F516
:00000001FF
