:100000000C94C3020C94FB020C94FB020C94FB02B4
:100010000C94FB020C94FB020C94FB020C94FB026C
:100020000C94FB020C94FB020C9487200C94572137
:100030000C94921B0C94FB020C94FB020C94FB029C
:100040000C94FB020C94FB020C94FB020C94FB023C
:100050000C94FB020C942A1C0C94FB020C94FB02E3
:100060000C94FB020C94FB020C94FB020C94FB021C
:100070000C94FB020C94FB020C94FB020C94FB020C
:100080000C94FB020C94FB020C94FB020C94FB02FC
:100090000C94FB020C94FB020C94FB020C94FB02EC
:1000A0000C94FB020C94FB020C94FB020102E20193
:1000B000012C0103E24678536F756E6401043230FF
:1000C000307C010128000102E70102E101014F013A
:1000D00003E70103E100656E762F73637269707444
:1000E000732F616374697661746501043530307C07
:1000F000010128000102E201012C0103E273706F8B
:100100007469667901043230307C010128000102F3
:10011000E201012C0103E2646973636F72640104FC
:100120003230307C0101280029001E001F00200011
:1001300021002200230024002500260027002D0096
:100140002E0031002B0014001A00080015001700C3
:100150001C0018000C00120013002F0030002A00B1
:10016000394204001600070009000A000B000D00C8
:100170000E000F003300340028004C00E100E100C5
:100180001D001B00060019000500110010003600BC
:1001900037003800E500E700E0000100E2002C41F4
:1001A000000000002C4100002C412C41E600000022
:1001B0000100010035003A003B003C003D003E00DC
:1001C0003F00400041004200430044004500010060
:1001D00001000100520001000100010001000100C6
:1001E00049004C0001000100010001000100500025
:1001F00051004F004A00010001004D0001000100C4
:1002000001000100010001000100010001000100E6
:10021000AA00A900010011140100AC00AE00AB005F
:1002200001000100010001000100010000000000C8
:1002300001000000010001000100000001000100B8
:100240003501010001000100010001000100010071
:10025000010001000100010001000100437E407E19
:100260003D04427E01000100010001000100010087
:10027000460001000100010001000100417E010073
:10028000447E0100010001000100010001000100A5
:1002900001000100010001000100B20001000100A5
:1002A0000100010001000100010001000100007CCB
:1002B0000100010001000100000000000100000039
:1002C00001000100010000000100635229001E002E
:1002D0001F0020002100220023002400250026000A
:1002E00027002D002E0031002B0014001A000800FA
:1002F000150017001C0018000C00120013002F003E
:1003000030002A00394204001600070009000A00E4
:100310000B000D000E000F003300340028004C00CD
:10032000E100E1001D001B0006001900050011009E
:100330001000360037003800E500E700E00001005B
:10034000E2002C00000000002C0000002C002C001B
:10035000E6000000010001000000000000000000B5
:100360002A2B280000000000000000000000000010
:1003700000000029000000002C1E3420212224341B
:100380002627252E362D3738271E1F2021222324ED
:1003900025263333362E37381F0405060708090A89
:1003A0000B0C0D0E0F101112131415161718191A25
:1003B0001B1C1D2F3130232D350405060708090AA3
:1003C0000B0C0D0E0F101112131415161718191A05
:1003D0001B1C1D2F3130354C0000000000000000B8
:1003E000000000000000000000000000000000000D
:1003F0000000000000000000000000007E0F00D49C
:10040000FFFFFFC700000078100350006F006C0072
:10041000610072006900730000001E0346004A007C
:100420004C00610062006F007200610074006F0098
:1004300072006900650073000000040309040902EA
:100440003B00020100A0FA090400000103010100C1
:100450000921110100012244000705810308000160
:10046000090401000103000000092111010001221B
:10047000B6000705820320000112010002000000FF
:10048000087470019001000102000105010902A138
:100490000185020901A10005091901290815002596
:1004A0000195087501810205010930093115812581
:1004B0007F95027508810609381581257F9501759C
:1004C000088106050C0A38021581257F95017508FB
:1004D0008106C0C005010980A101850319012AB761
:1004E00000150126B700950175108100C0050C09A3
:1004F00001A101850419012AA002150126A0029577
:100500000175108100C005010906A10185060507D6
:1005100019E029E7150025019508750181020507F5
:10052000190029EF1500250195F0750181020508D4
:100530001901290595057501910295017503910130
:10054000C005010906A101050719E029E7150025E5
:10055000019508750181029501750881010507194A
:100560000029FF150026FF00950675088100050883
:1005700019012905150025019505750191029501BF
:1005800075039101C00011241FBECFEFDAE0DEBF7A
:10059000CDBF04B603FE18C08091C2029091C30281
:1005A000A091C402B091C5028730904BA740B04BD8
:1005B00059F41092C2021092C3021092C402109217
:1005C000C502E0E0F8E3099511E0A0E0B1E0E2EC5B
:1005D000F8E402C005900D92A639B107D9F722E0E0
:1005E000A6E9B1E001C01D92A23CB207E1F70E946A
:1005F000DE120C94CF230C9400009C01FB012234EA
:100600008EE7380741F148F420348EE7380799F037
:1006100021343E47C9F081E0089523348EE738073E
:1006200009F124343E47B9F785818823A1F360E0BE
:100630008CEA90E006C08581882369F360E08EE053
:1006400091E00E949118E7CF8581882321F360E033
:1006500084EF90E0F6CF85818823E9F260E086EDB3
:1006600090E0EFCF85818823B1F260E086EC90E0E6
:10067000E8CF8430B8F46530A8F44E3098F4E42F15
:10068000F0E09EE0699FE00DF11D112496E4899F42
:10069000E00DF11D1124EE0FFF1FE85DFE4F859167
:1006A0009491089581E090E008950E94390308959F
:1006B00081E008950E945803089581E008950E9402
:1006C000FD02089508950E9462030895A6E0B0E037
:1006D000ECE6F3E00C942B2349835A839E833091FC
:1006E0009D0189819A8131111AC03E81332399F08D
:1006F000222389F00E948209182F682F89819A810C
:100700000E945E0969817A81812F0E948510269658
:10071000E3E00C9447230E947009182FF3CF0E9446
:10072000820969817A81F1CFFC01262F40815181B4
:1007300062817381848195810E9466030895CF93BD
:10074000DF93D82FC92F61E00E9494036D2F7C2F77
:100750000E945A03DF91CF910895CF93DF93D82F52
:10076000C92F60E00E9494036D2F7C2F0E946303C9
:10077000DF91CF91089581E008950E94BB03089511
:10078000CF93C82F0E9430088C2F0E94BD032FE703
:100790008AE196E0215080409040E1F700C00000DF
:1007A000CF91089581E00E94C0030E944E1C0895DD
:1007B00080E00E94C0030E94721C08950F931F9353
:1007C000CF93DF938C0161E00E949403EC01B801A8
:1007D0000E945F038823B1F1B801CE010E94611924
:1007E000882381F1B801CE010E947B14882351F146
:1007F000B801CE010E945014882321F1F8018581AF
:10080000882381F0CA35FCE7DF0739F178F4C1307D
:10081000ECE7DE07F9F0C330FCE7DF07C9F0C115EC
:10082000DC4771F0C8010E945D030DC0CB35ECE7D9
:10083000DE07B1F0CC35DC47A9F70E94B60DF2CF48
:100840000E94D20380E0DF91CF911F910F91089514
:100850000E94C80D0E94D803F5CF0E94C00DE2CFC0
:100860000E94C40DDFCF0E946E1B0E946104089598
:100870000E9465040E94731B0895089581E0089505
:1008800081FF02C0479A089547980895CF93DF9358
:10089000D82F0E943E04C82F882319F08D2F0E9464
:1008A00040048C2FDF91CF9108953F9A4798089587
:1008B000CF93C82F0E943D048C2F0E944604CF91F5
:1008C000089580E00E94580408950E94A7190E948C
:1008D00058040895CF930E94A719C82F80919801BA
:1008E0008C1779F0C09398010E94FE1B60939901C8
:1008F00070939A0180939B0190939C018C2F0E948E
:100900005804CF910895ADE0B0E0E9E8F4E00C942C
:100910002C23488759876A877B878C879D8791110D
:100920000E94C10C1F8286E0FE013896DE011196FE
:1009300001900D928A95E1F78D8181110DC0298179
:100940003A814B815C816D817E818F810E94070C91
:100950002D96E2E00C944823CE0101960E949F035D
:100960008111EDCFF5CFFC018481813021F48081AC
:1009700091810E94B4090895662329F00E94E91527
:100980000E94BF1608950E944716FACFCF93C82F32
:100990008823C9F08238C9F40E94B41981FD13C0BC
:1009A00089E30E94DB1A0E94590D2FEF33EF81E09B
:1009B000215030408040E1F700C0000089E30E94F0
:1009C000F21A0E94590DCF9108958338A1F40E9424
:1009D000B41980FDF8CF83E50E94DB1A0E94590DFF
:1009E0009FEF20E732E0915020403040E1F700C017
:1009F000000083E5E4CF8438A1F40E94B41982FD9D
:100A0000E2CF87E40E94DB1A0E94590D8FEF90E736
:100A100022E0815090402040E1F700C0000087E4D0
:100A2000CECF8CEF8C0F813A98F48C2F0E948813D4
:100A30008111C9CF8C2F0E944D1A882329F08C2F49
:100A40000E94F21A0E94590D8C2F0E94DB1AB9CF16
:100A500080E28C0F883048F4C77081E001C0880FB5
:100A6000CA95EAF70E94A20CACCF8BE58C0F8330BD
:100A700038F42C2F2452330BC9010E94E019A3CF64
:100A8000E8E5EC0FEB3150F4F0E0EE0FFF1FE95E0C
:100A9000FE4F808191810E94061A95CF83E38C0FCF
:100AA000833108F090CF61E08C2F0E94BC048BCF83
:100AB000882309F456C0823879F40E94B41981FF62
:100AC00050C089E30E94DB1A0E94590D89E30E94FD
:100AD000F21A0E94590D0895833859F40E94B419EE
:100AE00080FF3FC083E50E94DB1A0E94590D83E519
:100AF000EECF843859F40E94B41982FF32C087E4E3
:100B00000E94DB1A0E94590D87E4E1CF9CEF980FF9
:100B1000913AE8F290E2980F983050F4877091E0A3
:100B200001C0990F8A95EAF7892F0E94A80CD1CFAE
:100B30009BE5980F933028F480E090E00E94E01944
:100B4000089598E5980F9B3128F480E090E00E948A
:100B5000061A089593E3980F933118F460E00E9409
:100B6000BC0408951F93CF93DF93182FEB010E94CD
:100B7000C604209739F4812F0E945805DF91CF9148
:100B80001F9108958FEC97E00197F1F700C00000E6
:100B90002197EFCF60E070E0893311F460E570E0F9
:100BA0000E94B2050895882321F00E94A20C0E94A1
:100BB000590D0895882321F00E94A80C0E94590D18
:100BC0000895A0E0B0E0E7EEF5E00C9426236C0178
:100BD000D62FC72FFC011581068102950F700E9448
:100BE000970CE82E8823F9F0E12E1123E1F08C2FE9
:100BF000807F803461F080E28D0F8830F0F08C2FA0
:100C0000807E803221F4D230C0F00023B1F0809198
:100C10009C0282FF12C082E00E94890D0E94970C04
:100C200091E0E82EE926EC2FE295EF70C03CB0F59C
:100C3000F0E0EF52FC4D0C941623E12CF4CF0C2F76
:100C40000F70C03110F00295007F112399F000233E
:100C500059F080E28D0F883010F0D11107C0802F3D
:100C60000E94A20C0E94590D8D2F51C0802F0E940E
:100C7000B30CF8CF8D2F0E945805002379F080E245
:100C80008D0F883010F0D11104C0802F0E94A80C65
:100C900003C0802F0E94B90C0E94590DEE2089F0EC
:100CA0000E94930C80FD0DC0F60115820E948D0CF0
:100CB0000E94BB08C6010E94F7070E948D0C0E948B
:100CC000CB08CDB7DEB7E8E00C944223FC2FFF70D1
:100CD000FF2EC07FC03219F0F29480EFF822DD239E
:100CE00041F0D130D1F1112309F444C00023F1F0D7
:100CF000BBCF80919C0282FD15C0112359F0FF20CB
:100D000029F08F2D0E94A20C0E94590D80E00E94B4
:100D1000C604C4CF80E00E945805FF2009F4BECF6E
:100D20008F2DB4CF112369F0011104C08F2D0E94C3
:100D3000D305B4CF013009F0B1CF8F2D0E94D90C6B
:100D4000ADCF0111ABCF8F2D0E94DA058F2D0E9400
:100D5000E50C8F2D0E94C80CA1CF112321F0063085
:100D600008F09CCFE3CF053008F098CF8F2D0E947C
:100D7000DA0594CF0023D1F3D93349F42FEF83EF71
:100D800091E0215080409040E1F700C000008D2F9D
:100D90000E94580583CF8C2F869586958370882373
:100DA00069F0813009F07ACF8D2F9C2F937011114B
:100DB00002C080E090E00E94061A70CF8D2F9C2F19
:100DC0009370111102C080E090E00E94E01966CF9C
:100DD000612F8D2F0E94BC0461CF8C2F83708111F5
:100DE00039C0111129C04D2F429546954770440FC7
:100DF000440F2D2F2F7030E0042E02C0220F331F1E
:100E00000A94E2F780E090E0D4FF09C08FE090E020
:100E100002C0880F991F4A95E2F780959095C69574
:100E2000C695C370822B932BC23071F0C33079F01A
:100E3000C13039F00E948B080E94A7190E94580403
:100E40002DCF0E948208F8CF0E949408F5CF0E940F
:100E50007F08F2CF112361F1C0FFEECF4D2F4295F5
:100E600046954770440F440F2D2F2F7030E0042E0D
:100E700002C0220F331F0A94E2F780E090E0D4FF13
:100E800009C08FE090E002C0880F991F4A95E2F7F1
:100E900080959095C695C695C370822B932BC230D2
:100EA00069F0C33071F0C13031F00E94F608C4CF50
:100EB000823010F2D3CF0E94ED08BECF0E94FF080F
:100EC000BBCF0E94A308B8CFCF70112339F08C2F6D
:100ED0000E94BB088D2F0E94D305AECF8D2F0E949C
:100EE000DA058C2F0E94CB08A7CFD23F31F170F4E6
:100EF000D03FB9F0D13FB1F1112309F44EC0002326
:100F000009F448C08D2F0E94C60496CFD33FE1F06C
:100F1000D43F21F11111F3CF01114DC08C2F8F71EE
:100F2000E1CF112341F0053008F086CF8C2F8F716F
:100F30000E94DD0881CF0530F7CF8C2F8F71111102
:100F4000D1CF0E94BB0878CF112329F08C2F8F714D
:100F50000E94AF0871CF0E94AA086ECF80919C02B8
:100F600082FD06C08C2F8F71112309F4BBCFE9CF0E
:100F7000112331F063E08C2F8F710E946B0D5CCFD9
:100F800081E00E94890D023008F456CF82E00E9471
:100F9000890D52CF8C2F8F71D4CF002309F4BECF8F
:100FA000D93349F4EFEFF3EF21E0E150F040204076
:100FB000E1F700C000008D2F0E9458053DCF0F9330
:100FC0001F93CF93DF93EC01688179818D810E941B
:100FD000C1098C010E9408090E947E08B801CE0157
:100FE0000E94E105DF91CF911F910F910895CF935A
:100FF000DF93EC018C81882399F0CE010E94DE03FF
:10100000811111C00E94970C882351F08D81882393
:1010100039F080919C0282FF03C082E00E94890D1A
:10102000DF91CF910895CE010E94DF07CE010E948B
:10103000AD03F6CF80E090E00E94E01980E090E000
:101040000E94061A0E94C10C0E94590D0E94DC16D3
:101050000E94BF1608950E94091B0E941A08089555
:101060000E94B00C0E942B080895282F92959F7023
:10107000963091F060F4925F9F70923030F481E08E
:10108000203F79F030F4283E30F080E008959A5FF8
:10109000F3CF243FD1F7089581E0283EE0F3213FCC
:1010A000F9CF0895FC018481882339F080819181F2
:1010B0000E94B4090E943508089580E00895A6E0D2
:1010C000B0E0E5E6F8E00C942C232696E2E00C94E0
:1010D0004823A7E0B0E0EFE6F8E00C942C23279635
:1010E000E2E00C94482308950E94730808950E943A
:1010F00074089093C5018093C401089508950E94D7
:10110000770808952091C4013091C501822B932B5B
:101110000E94770808952091C4013091C50182236F
:1011200093230E94770808952091C4013091C5014E
:10113000822793270E94770808950E9473080895D4
:101140000E949D0808950E94A0089093C301809377
:10115000C201089580E090E00E94A308089521E074
:1011600030E0A90102C0440F551F8A95E2F7CA0179
:101170000E94A308089521E030E002C0220F331F2F
:101180008A95E2F78091C2019091C301822B932B43
:101190000E94A308089521E030E002C0220F331F0F
:1011A0008A95E2F7209530958091C2019091C30114
:1011B000822393230E94A308089521E030E002C017
:1011C000220F331F8A95E2F78091C2019091C301EB
:1011D000822793270E94A30808952091C20130918D
:1011E000C301822B932B0E94A30808952091C20172
:1011F0003091C301822393230E94A3080895209174
:10120000C2013091C301822793270E94A308089549
:1012100008959B01677091E001C0990F6A95EAF704
:1012200063E0369527956A95E1F7220F331F220F69
:10123000331FFA01E20FF31F40E050E0682F70E027
:101240008191DF0111979B01042E02C036952795ED
:101250000A94E2F7217021952827292328272C9327
:101260004F5F5F4F4430510559F708959C01982F07
:10127000977083E0369527958A95E1F7220F331F03
:10128000220F331FFB01E20FF31F40E050E080E02C
:10129000219130E0092E02C0369527950A94E2F795
:1012A00021703327042E01C0220F0A94EAF7822B03
:1012B0004F5F5F4F4430510559F70895282F862F0F
:1012C000953068F42E3058F4622F70E02EE0929F33
:1012D000600D711D11244EE951E00E940909089525
:1012E000292F953068F48E3058F490E06EE971E063
:1012F0003EE0239F800D911D11240E943609089520
:1013000080E00895A0E0B0E0E8E8F9E00C9425233F
:101310008C01E090C201F090C3018091C4019091D2
:10132000C501E82AF92ACFE0D0E0CC24C394D12C1F
:10133000C6010C2E02C0880F991F0A94E2F78E2175
:101340009F21892B49F4219798F7B12C8B2DCDB78C
:10135000DEB7E9E00C944123BC2EB8018C2F0E942B
:101360009110019781F3F2CFCF93DF93D82FC92F3C
:101370000E9482096D2F7C2F0E949110DF91CF91E6
:1013800008951F93CF93DF93162FD72F90919D0130
:10139000992341F0862F972F0E94B409DF91CF91B6
:1013A0001F910895882381F0862F972F0E9482092C
:1013B000C82F682F812F9D2F0E945E09612F7D2FDE
:1013C0008C2F0E949110EACF862F972F0E947009D0
:1013D000C82FF4CF0F931F93CF93E091C601C7E0BE
:1013E0008091C7018E1304C0CF911F910F91089572
:1013F0000E2F10E0CE9FF0011124E853FE4F208104
:101400003181428153816481758186810E9469089E
:10141000F8013196E770E4CF20910002309101028B
:101420004091020250910302609104027091050202
:10143000809106020E946908089580910602803119
:1014400078F480910502882359F0E091C60120913B
:10145000C701309101024091000257E02E1301C0F4
:1014600008956E2F70E05E9FF0011124DF01A853F4
:10147000BE4F14968C911497882361F111968C912C
:101480001197831327C08C91841324C015968C91D7
:10149000159781111FC012968D919C91A091020207
:1014A000B09103028A1B9B0B883C910598F48091B4
:1014B00006028F70806180930602E253FE4F8081A6
:1014C0008F708061808380E092E00E94F7070E9425
:1014D000EA090895FB013196E770C0CFE091C6019B
:1014E0009091C70127E0E91302C080E00895AE2F74
:1014F000B0E02E9FF0011124E853FE4F31813613E6
:1015000006C03081381303C03581341304C0FD0197
:101510003196E770E8CF81E008958F929F92AF9265
:10152000BF92DF92EF92FF920F931F93CF93DF93BF
:10153000CDB7DEB72D970FB6F894DEBF0FBECDBF87
:101540008C0186E0F801DE01189601900D928A95D3
:10155000E1F7F801E080F580A280B380848190E01B
:10156000892E92E0992E9091040291111BC088233C
:1015700009F4FCC0FF2009F43DC1C8010E945208D3
:10158000882309F437C187E0F801D40101900D9256
:101590008A95E1F7C4010E94B3040E941D0A0E94CB
:1015A0000C0AE4C0D090050220910202309103029F
:1015B000A501421B530BDD2009F4DBC0483C51055B
:1015C00008F0A6C0882309F4D1C09091010291804F
:1015D00080910602803108F06BC0991228C090916A
:1015E00000029E1124C0F1105DC08F708061809355
:1015F00006020E940C0A80E092E00E94F7078091A8
:101600000602F8018683F12C8F2D2D960FB6F894E3
:10161000DEBF0FBECDBFDF91CF911F910F91FF9025
:10162000EF90DF90BF90AF909F908F900895F11052
:1016300039C040E0692D8E2D0E946E0A40E0692D70
:101640008E2D0E946E0AF82E8111DDCF8885998536
:101650000E94B409292F22952F70903450F49F7066
:10166000223080F0992399F0F8019681903178F436
:10167000CBCF2A5F2F70223078F0C8010E94F70785
:10168000FD2CC2CF992319F0882309F4BDCF805EC9
:10169000883008F4B9CFF1CF803F08F4B5CF815F2F
:1016A0008230F7CF80910602816080930602ABCF33
:1016B000991207C0909100029E1103C0FF2009F407
:1016C00079C0C8010E945208882309F493C0FF2002
:1016D00009F490C080910602803288F020910002C7
:1016E000309101023A832983BC82AB82909104023B
:1016F0009D831E828F83CE0101960E94F70787E0AB
:10170000F801A0E0B2E001900D928A95E1F745CF93
:10171000909106029031A0F4488559856A857B85B1
:101720008C859D850E945F0880E092E00E94F7070B
:1017300087E0F40111928A95E9F70E940C0A63CFC1
:101740008823A1F02091010281812813BACF8091D2
:1017500000028E11B6CFF110B4CF9683C8010E945B
:10176000F70787E0F40111928A95E9F7FF24F394D3
:101770004BCF483C510508F041C08823B9F3FF2006
:10178000C9F190910102818198132AC080910002D1
:101790008E1126C08091060280FD19C08031B8F0FC
:1017A0008683807F803F39F08681982F907F905F7D
:1017B0008F70892B8683C8010E94F70787E0F801A4
:1017C000A0E0B2E001900D928A95E1F7E8CE87E0C3
:1017D000F801A0E0B2E001900D928A95E1F7C6CF42
:1017E000C8010E94520881118ACF8091060281604F
:1017F00080930602C8010E94F707B8CF4885598533
:101800006A857B858C859D850E945F0891CFAEE0BF
:10181000B0E0EDE0FCE00C942B23288739874A8761
:101820005B876C877D878E87CE0108960E948D0A24
:101830008823B1F06C85662341F0288539854A8577
:101840005B857D858E850E94690817E08091C601C1
:101850009091C70189133EC02E96E3E00C94472374
:1018600087E0FE013896DE01119601900D928A956F
:10187000E1F72091C7014091C6018C85882329F3A7
:1018800030E0C90101968770992750E084179507C9
:1018900099F097E0929FD001939FB00D1124A85327
:1018A000BE4FFE01319601900D929A95E1F780931B
:1018B000C7010E94EA09C9CF0E9430081092C701EF
:1018C0001092C60187E0E0E0F2E0DF011D928A9508
:1018D000E9F7BBCF189FC001112488539E4F0E9487
:1018E0008D0A882309F4B8CFE091C6011E9FF0014C
:1018F0001124E853FE4F208131814281538164815C
:10190000758186810E9469088091C60190E00196E8
:10191000877099278093C60199CF80912F02869571
:1019200086958695089580912F02877008959091ED
:101930002F02977081E0911101C080E0089580919D
:101940005B02089590915B02982B90935B0208953F
:10195000982F909580915B02892380935B02089574
:1019600010925B02089590915A02982B90935A021C
:101970000895982F909580915A02892380935A0256
:10198000089510925A02089508950E94C40C089573
:1019900090913002292F2823222331F0809589232A
:1019A000809330020E94C50C089508950E94D50CC2
:1019B000089590913102292F2823281729F0982B78
:1019C000909331020E94D60C089590913102292FF4
:1019D0002823222331F080958923809331020E94AD
:1019E000D60C089580913102882329F0109231029B
:1019F00080E00E94D60C0895CF93DF93C0915B02E4
:101A000080915A02C82BD0913102DD2331F00E941F
:101A10002C1A81110E94F20CCD2B8C2FDF91CF91CB
:101A20000895CF93DF93C0910201D09103010E94EA
:101A3000FC0C8883C0910201D091030148E050E082
:101A400067E272E0CE010E946723892B59F088E09B
:101A5000FE01A7E2B2E001900D928A95E1F7CE0176
:101A60000E94B719DF91CF910895CF93DF93C09172
:101A70000001D09101010E94FC0C8983C0910001FA
:101A8000D091010140E250E067E072E0CE010E9497
:101A90006723892B59F080E2FE01A7E0B2E00190B4
:101AA0000D928A95E1F7CE010E94C219DF91CF9184
:101AB000089580911601882339F080919B0287FF59
:101AC00003C00E94350D08950E94110D08950895D8
:101AD0000E94670D089590919C0292FF11C098E0BA
:101AE000899F90011124622B60932F020E94BB08F2
:101AF00080912F028695869586950E94680D08959F
:101B00000E94BB08089510922F0280E00E94680D89
:101B1000089590912F028095892380932F02282F7A
:101B2000277021110DC0891759F090919C0292FFE6
:101B300007C08695869586950E94CB080E94830DE6
:101B4000089590919C0292FB222720F9281769F0B2
:101B500080FB92F990939C0280919B0290919C0251
:101B60000E94E90D82E00E94890D089580919C02F7
:101B700082FB882780F991E089270E94A10D0895B2
:101B800081E00E94A10D089580E00E94A10D0895BA
:101B90006FEF7FEF80E090E00E94B923089580E02E
:101BA00090E00E9485239C0181E0253E3E4F09F094
:101BB00080E0089582E090E00E947D23089583E014
:101BC00090E00E947D23089584E090E00E948523A8
:101BD0000895BC0184E090E00E94B9230895AB0110
:101BE000BC018FE090E00E94AD230895AB01BC01E1
:101BF00083E190E00E94AD23089560E070E0CB01A6
:101C00000E94F60D089560E070E0CB010E94EF0D98
:101C10000E94FD0D0895A8E0B0E0E1E1FEE00C9423
:101C20002C2365EE7EEF80E090E00E94B92360E017
:101C300082E090E00E949B2381E090E09093C501B8
:101C40008093C40161E083E090E00E949B2360E008
:101C500074E184E090E00E94B92360E086E090E0C7
:101C60000E949B2360E087E090E00E949B2340E07D
:101C700050E0BA0188E090E00E94AD2360E083E28A
:101C800090E00E949B2360E08CE090E00E949B2308
:101C900060E08DE090E00E949B2319821A821B82F3
:101CA0001C821D821E821F82188648E050E067E178
:101CB00070E0CE0101960E948B2340E050E0BA0113
:101CC0008FE190E00E94AD230E94030E2896E2E08F
:101CD0000C9448230E940B0E0895682F8EE090E02C
:101CE0000E949B230895A6E0B0E0E9E7FEE00C9493
:101CF0002A230E94F21B8C0180915C0290915D026C
:101D00008017910779F019821A820E94F21BBC0198
:101D100049815A8180E090E00E94830410935D0223
:101D200000935C022696E4E00C9446230E94FE1B7E
:101D300060936C0270936D0280936E0290936F02B9
:101D4000609368027093690280936A0290936B02B9
:101D50000895089508950E94A90E089508950E9477
:101D6000AE0E089589E891E10E94F3120E94AA0E36
:101D70000E94AB0E089581E008950E94BB0E089565
:101D80000E94BB0E0895089508950E94C30E0E94FC
:101D9000C40E08950E94CF0D811102C00E946A0EE8
:101DA0000E94DA0D809370020E94E40D90939C02D1
:101DB00080939B020E9413130E94DF0D90E00E940B
:101DC0007F088091C2019091C3010E94A0080895EC
:101DD0000E94E91B0E9446120E94CA0E0E945504EE
:101DE0000E94AF0E0895A6E0B0E0E9EFFEE00C948B
:101DF00020230E94BD0E81110AC00E94730E0E9412
:101E0000FD160E946A042696EEE00C943C230E9484
:101E10005C122EE5822E22E0922E640110E0F60183
:101E2000E190F1906F01812F0E9493111F5F153097
:101E300009F44DC0E816F90691F38091700281FD16
:101E40000E949C110E94C00E782EF12C662463948F
:101E50008F2D0E9493118C01F401A190B1904F013C
:101E60008A159B0569F1A826B926E12CCC24C394D8
:101E7000D12CC5018C219D21892BC1F07720B1F097
:101E8000E982FA820E94F21B9C838B836D8221E09F
:101E9000C8018C219D21892B09F420E049815A81B8
:101EA0006B817C818D81922F0E948304E394CC0C02
:101EB000DD1CFEE0EF12DDCFF401329711830083C9
:101EC000F39485E0F812C4CF0E94960E98CFE816DE
:101ED000F90609F0B2CF91CF1F93CF93DF930E9401
:101EE0009610EC01811522E5920708F053C0811588
:101EF00040E5940708F0DDC0803E9105F8F48D3C84
:101F0000910508F0AEC0883A910580F4853A9105B4
:101F100008F099C08130910521F00497813A91052C
:101F200050F4CE01DF91CF911F910895885A910905
:101F30004B9708F48BC0C0E0D0E0F3CF811550E49C
:101F40009507F8F4C11580E2D80708F0CBC0C83E69
:101F5000D10538F3CE019A9581159F4160F78D2FF9
:101F60000E943A11182FCE0199270E949610212F16
:101F700030E0322F2227E901CC27DF71C82BD92B83
:101F8000D0CF99270E949610CC27DF70C82BD92B71
:101F9000D06AC7CF803842E59407C8F5803652E54D
:101FA000950708F067C0C03482E5D807B0F08C2FE1
:101FB00086958695877020E2829FC0011124C370A8
:101FC00021E030E0A90102C0440F551FCA95E2F795
:101FD000EA01C82BD92BDC68A4CFC03252E5D50763
:101FE00008F041C08C2F8695869520E2829FC00123
:101FF0001124C37021E030E0A90102C0440F551F35
:10200000CA95E2F7EA01C82BD92BDD688ACF803C5C
:1020100052E5950760F48F71C03AD24508F03FC091
:1020200090E0982F8827EC01C46FD06A7ACF805C4B
:102030009245809708F07FCFDC2FCC27CC27DF712B
:10204000C06FD06A6ECFA497D0646BCFC85AD0E06F
:10205000CC0FDD1FC35BDE4F0990D881C02DD46447
:1020600060CFD0655ECFCF71D0E0DC2FCC27C16FC1
:10207000D06A57CF86958695877020E2829FC001EF
:102080001124C37021E030E0A90102C0440F551FA4
:10209000CA95E2F7EA01C82BD92BDA6842CF0E9431
:1020A0003A11C82FD0E0DC2FCC27CC27DF71D062CB
:1020B00038CF8F710E943A1165E0D695C7956A9521
:1020C000E1F7CF70D0E0DC2FCC27282F30E084FF61
:1020D00005C054E0220F331F5A95E1F7C22BD32BD2
:1020E000D0691FCF8D2F8F710E943A11182FCE010A
:1020F00099270E949610212F30E0322F2227222785
:102100003F71282B392BE901D2CF462F672F75302D
:1021100028F44E3018F40E945503089580E090E0B2
:1021200008950E9485100E946C0F0895803E9105CD
:10213000D1F1C8F48133910509F47FC048F48932A4
:10214000910509F46FC08A32910509F47DC00895A4
:1021500089339105E1F082389105C9F08533910505
:1021600009F45BC00895843E9105D1F148F4823EA4
:10217000910531F1833E910541F181EE90E00895A2
:10218000863E9105C1F1873E9105E1F108952091C8
:102190009B022370211165C020919C0223FF14C073
:1021A00089E290E0089520919B0220FD43C0309188
:1021B0009C0230FF09C024FF4EC080E090E00895EB
:1021C00020919B0222FDF7CF089520919B0222FDD2
:1021D00045C030919C0230FD44C024FFF5CFEDCFC7
:1021E00020919C0221FFF0CF80919B0284FDE5CFDE
:1021F00087EE90E0089520919B0223FFE5CF24FD18
:10220000DCCFF6CF20919B0223FD2EC030919C02A3
:1022100031FFE3CF84EE90E0089520919B0225FFEB
:10222000D3CFBECF20919B0225FD21C020919C02DF
:1022300023FFCACF89E390E0089520919B0226FFF7
:10224000C3CF8AE290E0089520919B0226FFBCCF85
:1022500081E390E0089583EE90E0089582EE90E0AF
:10226000089580EE90E0089586EE90E0089585E36D
:1022700090E0AACF90919B0292FF10C041E0282FDE
:102280002471243009F040E031E0282F28712830F3
:1022900009F030E0431711F02CE0822793FF10C0C3
:1022A00041E0282F2471243109F040E031E0282F4B
:1022B0002871283109F030E0431711F02CE0822713
:1022C00030919C0230FF10C051E0282F2171213045
:1022D00009F050E041E0282F2871283009F040E053
:1022E000541711F029E0822731FF10C041E0282F58
:1022F0002171213109F040E031E0282F2871283187
:1023000009F030E0431711F029E0822794FD877E21
:10231000089580E0089508950E948B11089508950E
:102320000E948F110895E82FF0E0EE0FFF1FE9558E
:10233000FD4F808191810895089580E58A95F1F798
:10234000089500C008950E949D110895F894E82F03
:10235000E295EF70F0E041A18F7021E030E0B9012B
:1023600002C0660F771F8A95E2F7CB01962F9095F2
:10237000942391A392A1892B82A3789408950F931B
:102380001F93CF93DF93C1E9D1E089918F3F11F083
:102390000E94A61181E0C639D807B9F7C3E8D1E099
:1023A00001E911E089918F3F11F00E94A6110C17ED
:1023B0001D07C1F7DF91CF911F910F910895A0E004
:1023C000B0E0E5EEF1E10C942523EC01B62E062FEA
:1023D00010E0C8018F569E4F7C01FC0180818F3F29
:1023E00009F44FC0F894E82FE295EF70F0E091A166
:1023F0008F7021E030E001C0220F8A95EAF7892F23
:10240000822B81A382A12095282322A378940E9465
:10241000A111E3E8F1E041E050E0C12CD12C219181
:102420002F3F89F0A22FA295AF70A05EB0E08C91F3
:1024300090E02F7002C0959587952A95E2F78170FC
:102440009A01882311F020E030E0C22AD32A440FF9
:10245000551F81E0E139F80711F7F70180818F3FBF
:1024600011F00E94A61161E0C114D10409F460E0EA
:102470008B2D0E94A311000F111FC00FD11FD982F5
:10248000C882CDB7DEB7E9E00C9441230E94BF11AA
:102490008AE0E7EAF2E0DF01982F1D929A95E9F7CA
:1024A000EDE9F2E0DF011D928A95E9F785E00E94EF
:1024B00099120E948C110895AAE0B0E0E2E6F2E1E0
:1024C0000C942923FE0131968AE0DF011D928A9542
:1024D000E9F710E0FE2E0F2F612F8F2D902F0E9415
:1024E000DF111F5F1530C1F74AE050E06F2D702FEC
:1024F0008DE992E00E94672321E0892B81F420E09E
:1025000045E067EA72E08DE992E00E949A12182F86
:102510000E949011812F2A96E5E00C9445238AE0D1
:10252000EF2DF02FADE9B2E001900D928A95E1F721
:10253000E7CF0895A0E0B0E0E0EAF2E10C942623B2
:10254000D82EE92EF62ED72F042FC22F222379F072
:1025500081E0809373020E94F21B90937202809339
:10256000710280E0CDB7DEB7E8E00C944223C09062
:102570007302CC20B1F380917102909172020E949B
:102580001B1C059770F310E0000F111FA8016D2DA3
:102590007E2D8F2D9D2F0E946723892B41F0A8014E
:1025A0006D2D7E2D8F2D9D2F0E947423CC2D10928A
:1025B00073028C2FD7CF0E94F30E08950E948B1BBD
:1025C0000E94C61D0E94B20E0E94E01D0E94E80EED
:1025D0000E94ED1D0E94F21D0E94DB120E940C1E43
:1025E0000E94C50EF7CF90939701809396010895AE
:1025F0000E94C80D089580E00E9493118170089593
:102600000E945C128FE59AEE0197F1F700C000007E
:102610000E945C120E94FB12882321F00E94F81293
:102620000E944E1C08950E9400130895EBEFE80FDE
:10263000EF3308F066C0F0E0E352FC4D0C94162333
:102640000E946A0E81E0089580917002807F8093DD
:10265000700281E080937702F5CF0E94D203F2CF1F
:1026600090917002892F8E7F90FF8160809370021D
:1026700080FDE8CF817F80937002E4CF909170025B
:10268000892F8D7F91FF82608093700281FFDACF66
:10269000809170028160EFCF90917002892F8B7FC3
:1026A00092FF84608093700282FDF2CFCBCF909135
:1026B0007002892F877F93FF88608093700283FD6B
:1026C000E7CFC0CF0E94300890919B02892F97FBE3
:1026D00087F9805880939B02B5CF81E090E00E94FB
:1026E0007F080E943008AECF895321E030E0A90175
:1026F00002C0440F551F8A95E2F7CA01F0CF8D51F1
:10270000F4CF80E0089580E008950E948313089537
:10271000CF93C82F809177028130A1F08230A9F148
:102720008111BAC00E949F0C823209F0B7C08C2F71
:102730000E948313811111C08C2F0E941613817087
:10274000CF9108950E949F0C823289F38C2F0E94B2
:102750008513882329F081E0F2CF81E090E0EFCF6C
:10276000C43161F030F4CB30B1F3C03151F080E0CE
:10277000E6CFC93219F0C83371F3F9CF109277025E
:10278000F6CF82E080937702E6CFCF3409F471C0B0
:1027900068F4C83248F4CE3150F5C73009F44BC064
:1027A000C431D1F081E0CCCFC932FBCFC13509F4BF
:1027B00055C091E0C23509F45DC0C03599F7E0918C
:1027C0007402F0917502309769F380818A50990BF9
:1027D00097FF60C01082E6CF80917602882311F3C4
:1027E000109276021092750210927402DBCFCD51D6
:1027F000C0937602C430C9F078F48AE091E0C23028
:1028000031F089E091E0C33011F08BE091E09093DA
:10281000750280937402C6CFC53051F084E091E018
:10282000C630A9F310927602BDCF88E091E0EFCFD9
:1028300085E091E0ECCF81E080930B0184E180930F
:102840000A018AE0809309018EE18093080188E003
:102850008093050188E280930401A4CFE091740283
:10286000F0917502309709F49DCF80818150990BCA
:10287000AFCF9AE0E0917402F0917502309709F4BD
:1028800091CF8081890F9927991F8F3F910511F072
:102890000CF08FEF808386CF1092770280E050CFCC
:1028A000CF93DF93EB0186319C4719F50E949F0C73
:1028B0009D819923A1F08A7A91E0811101C090E075
:1028C00090937802882349F085E30E94DB1A0E94E6
:1028D000590D80E0DF91CF91089589E2F6CF809184
:1028E0007802882321F085E30E94F21AF0CF89E272
:1028F000FBCF81E0EFCFCF93DF93EC01FB0185812C
:10290000882309F4D2C09E0130572332310508F0E4
:10291000B2C00E94E40D90939C0280939B02FE0142
:10292000E150F047E232F10520F4E45EFB4D0C94F7
:10293000162380919B02816080939B0293C08091BB
:102940009C02886080939C028DC080919B02826073
:10295000F3CF80919B028460EFCF80919B028860CF
:10296000EBCF80919C028160EDCF80919C028260D0
:10297000E9CF80919B028061DFCF80919B028062D2
:10298000DBCF80919B028064D7CF0E94300880917A
:102990009B028068D1CF80919B028C60CDCF8091CB
:1029A0009C028360CFCF80919B028E7FC5CF8091A8
:1029B0009C02877FC7CF80919B028D7FBDCF809186
:1029C0009B028B7FB9CF80919B02877FB5CF80918F
:1029D0009C028E7FB7CF80919C028D7FB3CF809178
:1029E0009B028F7EA9CF80919B028F7DA5CF809186
:1029F0009B028F7BA1CF0E94300880919B028F7732
:102A00009BCF80919B02837F97CF80919C028C7F8C
:102A100099CF80919B0282FB992790F921E0922720
:102A200090FB82F990FB83F987CF80919C02982FCD
:102A3000909591708E7F892B90FB81F983CF909137
:102A40009B02892F8F7B96FF806476CF0E9430088F
:102A500090919B02892F97FB87F980586DCF81E079
:102A60000E946D0E80919B0290919C020E94E90D44
:102A70000E94300880E0DF91CF91089580E0F0CF90
:102A800090919B02892F8F7E94FF806155CF90910A
:102A90009B02892F8E7F90FF81604ECF90919C0288
:102AA000892F877F93FF88604DCF81E0E4CF282F67
:102AB00035EB2303C001112497FF04C0805891090E
:102AC000892F089580589F4FFBCF80917F0280FF10
:102AD0000DC06091090170E0660F771F60387105C5
:102AE000C0F561157105B9F1862F089581FF07C002
:102AF0006091090184E0689FB0011124EFCF82FF4B
:102B000004C06091090188E0F6CF80917E0288239D
:102B1000E9F0909108016091090170E0891730F0A7
:102B200093E0660F771F9A95E1F7D8CF869F9001C3
:102B3000879F300D112483E0220F331F8A95E1F720
:102B4000692F70E0C9010E940223C8CF68E070E0DD
:102B5000CBCF8FE7089581E0089580917F0280FFB9
:102B60000CC06091050170E0759567957595679546
:102B70006115710561F1862F089581FF06C060918E
:102B8000050170E075956795F3CF6091050170E0E0
:102B900082FD15C020917D022223B1F090910401A5
:102BA0006091050170E0291750F4269FA001279F2E
:102BB000500D1124692F70E0CA010E940223603871
:102BC0007105B0F28FE7089561E070E0D4CF81E045
:102BD00008959091820220918302922B2091850288
:102BE000922B20918402922B992331F098E09093BC
:102BF0007E0291E090937D028D3C31F40E94651538
:102C00008195809383020895E2E3E80FE231B0F505
:102C1000F0E0E25CFB4D0C9416230E946515F1CFA9
:102C20000E94651581958093820208950E94651522
:102C3000FACF0E94AD158093840208950E94AD15CD
:102C40008195F9CF0E94AD158195809385020895F5
:102C50000E94AD15FACF815D990B21E030E001C0F3
:102C6000220F8A95EAF780918102822B809381025C
:102C7000089580917F02816080937F020895809102
:102C80007F028260F9CF80917F028460F5CF40910E
:102C900082028D3C59F48091830287FF0DC010920F
:102CA0008302442359F410927E0208C08E3C81F4C2
:102CB0008091830218169CF3442381F08091840252
:102CC00090918502892B811159C010927D0208953F
:102CD0008F3C41F447FFF0CF109282028091830233
:102CE0008823E0CF803D19F41416B4F3E5CF90911A
:102CF0008402893D29F41916FCF610928402DCCF77
:102D00008A3D19F497FFD8CFF8CF909185028B3D7B
:102D100029F497FFD1CF10928502CECF8C3D19F4C4
:102D20001916CCF3C9CF9FE2980F983090F4815DCB
:102D3000990B21E030E0B90102C0660F771F8A9538
:102D4000E2F7CB01809590918102892380938102E3
:102D5000B3CF8D3D31F480917F028E7F80937F02CF
:102D6000ABCF8E3D21F480917F028D7FF7CF8F3DD9
:102D700009F0A2CF80917F028B7FF0CF08950E944F
:102D8000F21B2091820230918302232B222321F017
:102D900080937B0290937C02209184023091850283
:102DA000232B222321F08093790290937A0280E8EA
:102DB00092E00E94D119089586E0E0E8F2E0DF0198
:102DC0001D928A95E9F710927E0210927D02109270
:102DD0007F020895FC01828181110DC083818111E0
:102DE0000AC08481811107C081E09581911101C0E1
:102DF00080E08170089581E0FCCFA6E0B0E0E3E0E0
:102E0000F7E10C94292386E0E0E8F2E09E012F5FD1
:102E10003F4FD90101900D928A95E1F710928202FD
:102E20001092830210928402109285028B819C8101
:102E3000892B8901882391F080917B0290917C02FB
:102E40000E941B1C9C0180917E028823C9F1409145
:102E50000A0150E04217530708F43FC08D819E815C
:102E6000892B882399F08091790290917A020E94AF
:102E70001B1C9C0180917D02882309F467C040914E
:102E8000060150E04217530708F46EC0B80180E80D
:102E900092E00E94231B811105C080E892E00E940D
:102EA000EA1681110E94BF1686E0F801A0E8B2E0A0
:102EB00001900D928A95E1F72696E5E00C94452362
:102EC00040910B019AE0499FA0011124421753073A
:102ED00028F68F5F80937E0202C08F3FD1F7FB8080
:102EE000FF2059F00E94651591E01F140CF09FEF30
:102EF000899F802D112480938202FC80FF2059F04D
:102F00000E94651591E01F140CF09FEF899F802DA2
:102F100011248093830280918202882309F49ECF3A
:102F2000F0908302FF2009F499CF0E945715811178
:102F300001C081E0809382028F2D0E945715882363
:102F400019F0809383028ACF81E0FBCF4091070183
:102F50009AE0499FA00111244217530708F096CF29
:102F60008F5F80937D0202C08F3FD1F7FD80FF20ED
:102F700059F00E94AD1591E01F140CF09FEF899F4E
:102F8000802D112480938402FE80FF2059F00E943E
:102F9000AD1591E01F140CF09FEF899F802D112437
:102FA0008093850280918402882309F46FCFF0908A
:102FB0008502FF2009F46ACF0E945715811101C0D4
:102FC00081E0809384028F2D0E945715882319F089
:102FD000809385025BCF81E0FBCFA0E0B0E0E3EF20
:102FE000F7E10C942523E82FF0E0E85AFC4FB49069
:102FF000282F26952695269530E0F901E850FC4FBC
:103000000491877010E0082E02C0159507950A9468
:10301000E2F701701127F901E851FC4FE490F12C1F
:10302000082E02C0F594E7940A94E2F791E0E922B1
:10303000FF24F901E852FC4FC491D0E002C0D595BD
:10304000C7958A95E2F7C170DD27C62ED12C0115F0
:10305000110549F5E114F10431F086EE0E94C60431
:10306000C601009771F5B6018B2D0E94B205C6010D
:10307000009779F5E114F104A1F50115110531F07E
:1030800081EE0E945805C6010097C9F5CD2B31F09D
:103090008CE20E94CA05C114D104C9F5CDB7DEB7D0
:1030A000E9E00C94412381EE0E94C604C60100971A
:1030B00089F2EFECF7E03197F1F700C000000197DB
:1030C000F6CFEFECF7E03197F1F700C00000019781
:1030D000C8CFEFECF7E03197F1F700C0000001979F
:1030E000C7CF86EE0E945805C601009731F2EFEC7B
:1030F000F7E03197F1F700C000000197F6CFEFEC51
:10310000F7E03197F1F700C000000197BDCF8FECD9
:1031100097E00197F1F700C0000091E0C91AD108CB
:10312000BACFFF920F931F93CF93DF938C01F62EAC
:10313000F8018491882309F450C0813009F048C017
:10314000E8012196FE018491813049F42196FE0127
:1031500084910E94CA058E010F5F1F4FE9CF823014
:1031600039F4E8012296FE0184910E94C604F3CF4F
:10317000833039F4E8012296FE0184910E945805BB
:10318000EACF843041F7E8012296FE01849120E0E5
:1031900030E04AE0FE0131968053990B8A30910568
:1031A00060F021153105B9F28FEC97E00197F1F746
:1031B00000C0000021503109F4CF429FB001439F6D
:1031C000700D11249C01260F371F8491EF01E2CF6F
:1031D0006F2D0E94ED17E801BECFCDB7DEB7E5E059
:1031E0000C9445230F931F93CF93DF93C42FD22FBB
:1031F000FC0185818823C9F0409388020E94F21B5C
:10320000909387028093860280E28C0F883040F48E
:10321000C77081E001C0880FCA95EAF70E94D30504
:10322000DF91CF911F910F9108951091880214138F
:103230003CC080918602909187020E941B1C883CB2
:10324000910598F5C0E2CD0F1D1741F180E2810F85
:10325000883040F4177081E001C0880F1A95EAF7B2
:103260000E94DA05C83020F0802F0E94CA05D8CF0E
:1032700091E08D2F877001C0990F8A95EAF7892F09
:103280000E94D305802F0E94CA05D77081E001C03B
:10329000880FDA95EAF70E94DA05C2CF802F0E94E4
:1032A000CA05C83008F0BCCFF0CF80E28C0F883060
:1032B00008F0B6CFC77081E001C0880FCA95EAF761
:1032C000EACF0F93FC01CB01E851FC47E730F10551
:1032D00090F5E05BFB4D0C94162306E221EE41EEE7
:1032E0006AE17CE70E94F21880E00F91089507E2FE
:1032F00025EE45EE6BE17CE7F5CF06E221EE40EEF0
:1033000068E17CE7EFCF07E225EE44EE69E17CE778
:10331000E9CF06E221EE42EE6CE17CE7E3CF07E283
:1033200025EE46EE6DE17CE7DDCF08E221E045EEDB
:103330006EE17CE7D7CFFB01858181111092880275
:1033400081E0D3CF90938E0280938D020895E09117
:103350008D02F0918E02309729F00190F081E02DDE
:103360000995089580E008950E94A7190895E091B5
:103370008D02F0918E02309721F00280F381E02DD2
:1033800009950895DC01E0918D02F0918E0230974D
:1033900039F086E08C930480F581E02DCD0109950C
:1033A0000895DC01E0918D02F0918E02309739F0A2
:1033B00082E08C930680F781E02DCD010995089578
:1033C000A3E0B0E0E6EEF9E10C942C239C0180919F
:1033D0008B0290918C0282179307A1F030938C029C
:1033E00020938B02E0918D02F0918E02309751F084
:1033F00083E089833B832A830084F185E02DCE011D
:10340000019609952396E2E00C944823A3E0B0E0EE
:10341000ECE0FAE10C942C239C01809189029091BC
:103420008A0282179307A1F030938A0220938902BF
:10343000E0918D02F0918E02309751F084E0898303
:103440003B832A830084F185E02DCE010196099506
:103450002396E2E00C94482320910201309103016D
:103460002E5F3F4F809116018823A9F080919B0227
:1034700087FF11C020910001309101012E5F3F4F65
:103480009DE180E0F90140812F5F3F4F41118F5F47
:103490009150C0F7089595E0F4CF882321F19091E1
:1034A0001601992311F190919B0297FF1EC0982F4E
:1034B000969596959695803FB0F4E0910001F09135
:1034C0000101E90FF11D228130E0877041E050E0F9
:1034D000BA0102C0660F771F8A95E2F726233723C9
:1034E00081E0232B91F480E0089520910201309136
:1034F0000301F9013296285F3F4F9191981721F00F
:10350000E217F307D1F7EFCF81E008959C01FC01AA
:1035100032968FEF90E04191461751F08F3F19F4AA
:10352000411101C0892F9F5F9630A9F78F3F09F4A1
:103530000895280F311D87FD3A95F901628308959A
:103540009C01FC013296285F3F4F8191861303C096
:10355000DF0111971C92E217F307B9F70895FC01F8
:10356000862F869586958695603F60F4E80FF11D5D
:10357000677021E030E001C0220F6A95EAF782818E
:10358000822B82830895FC01862F869586958695E9
:10359000603F80F4E80FF11D677081E090E09C01CE
:1035A00002C0220F331F6A95E2F7B901609582814C
:1035B000682362830895682F80911601882359F04B
:1035C00080919B0287FF07C08091000190910101CB
:1035D0000E94AF1A089580910201909103010E9408
:1035E000861A0895682F80911601882359F08091DA
:1035F0009B0287FF07C080910001909101010E940A
:10360000C31A089580910201909103010E94A01AAB
:10361000089580911601882379F080919B0287FF9D
:103620000BC0E0910001F091010132968EE1DF01C3
:103630001D928A95E9F70895E0910201F091030146
:10364000329686E0F4CFDC01FB0111969C91119734
:103650008181981322C012968C911297882319F0B9
:10366000928189131AC013968C911397882319F0AD
:103670009381891312C015968C911597882319F0A0
:10368000958189130AC014969C91992321F081E0B9
:103690002481291303C080E001C081E08170089576
:1036A00008950E94501B08958F5F80938F020E949F
:1036B000511B089583E080938F020E94511B08954F
:1036C0000E94541B089581E080938F020E94511B39
:1036D00008950E94631B0895089508950E946D1B2C
:1036E0000895089508950E946C1B0895CF930E9439
:1036F000711B0E945C120E94721BC0E08C2F0E9402
:103700009311892B31F4CF5FC530C1F780E0CF91A1
:10371000089581E0FCCF85B7806885BF85B7806854
:1037200085BF08951F921FB61F9211248F939F93F8
:10373000AF93BF9380919002811113C08091B10229
:103740009091B202A091B302B091B4024196A11D32
:10375000B11D8093B1029093B202A093B302B093D3
:10376000B402BF91AF919F918F911F901FBE1F9088
:1037700018958091B902843031F10E94330410927F
:10378000900288E190E020E40FB6F894A895809329
:1037900060000FBE2093600083B7817F846083BF89
:1037A00083B7816083BF7894889583B78E7F83BF0A
:1037B0000FB6F894A89580916000886180936000AE
:1037C000109260000FBE08950E9430080E943804D5
:1037D000089582E084BD93E095BD9DE797BD8093F9
:1037E0006E0008952FB7F8948091B1029091B202C3
:1037F000A091B302B091B4022FBF0895A4E0B0E04D
:10380000E4E0FCE10C942C238FB7F8942091B102F2
:103810003091B2024091B3025091B40229833A83AD
:103820004B835C838FBF69817A818B819C812496D5
:10383000E2E00C9448239C014FB7F8948091B102C8
:103840009091B202A091B302B091B4024FBF821B1B
:10385000930B089578941F921FB61F9211248F9393
:103860009F93AF93BF938091B1029091B202A091C8
:10387000B302B091B4020196A11DB11D8093B102B3
:103880009093B202A093B302B093B402BF91AF91F0
:103890009F918F911F901FBE1F90189581E080937C
:1038A000E00080E28093D8001092C9008FE097E298
:1038B0000197F1F700C0000087E090EBDC018093F6
:1038C000C2029093C302A093C402B093C50288E1E0
:1038D0009CE00FB6F894A895809360000FBE90937B
:1038E0006000FFCF88E19CE00FB6F894A895809324
:1038F00060000FBE90936000FFCF80919902089501
:10390000282FCB01BA013091B9023430E1F42F7085
:103910002093E9002FEF3091E80035FD07C03AE62B
:103920003A95F1F700C021502111F5CF2091E80020
:1039300025FF09C040E050E00E94831E8091E8000E
:103940008E778093E8000895BC0143E050E082E068
:103950000E94801C0895BC0146E050E082E00E9475
:10396000801C0895BC0140E250E082E00E94801C6F
:103970000895CF93DF93D82FC92F48E050E0682FE8
:10398000792F81E00E94801C88E0ED2FFC2FA1E9B7
:10399000B2E001900D928A95E1F7DF91CF91089501
:1039A0008091B802811109C00E940B200E946820FA
:1039B0008091E20084608093E20008951092B80242
:1039C00008950E94631B08956091B50281E0611122
:1039D00001C080E00E945A1B08959091B90281E0D5
:1039E000943009F080E06091B5020E94601B089558
:1039F00042E061EC81E00E94871F42E261EC82E0DC
:103A00000E94871F9091B90281E0943009F080E014
:103A10006091B5020E94541B08958091BB028930C9
:103A200089F148F4823009F4A0C0833009F45AC007
:103A3000813041F008958A3009F487C08B3009F451
:103A40006CC008958091BA02813A09F04AC0809111
:103A5000E800877F8093E8008091BE029091BF02CA
:103A6000892B61F060E080E090E070E00E94D21E5F
:103A70008091E8008B778093E800089568E081E901
:103A800092E0F3CF8091BA02813259F58091BE0263
:103A90009091BF02029728F58091E800877F80937C
:103AA000E8008091E80082FF18C09091F3008091B7
:103AB000F200029731F48091F100813011F08630EC
:103AC00021F48091F100809399028091E8008B7736
:103AD0008093E8000E94BB1F04C08091B90281114D
:103AE000E0CF08958091BA02813AD9F78091BE0261
:103AF0009091BF02892BA9F78091E800877F80937E
:103B0000E8008091E80080FFFCCF8091160180934F
:103B1000F1008091E8008E77DBCF8091BA0281328C
:103B200001F78091BE029091BF02892BD1F680915E
:103B3000E800877F8093E8000E94BB1F8091BC0251
:103B4000809316010E94300808958091BA02813254
:103B500041F68091E800877F8093E8000E94BB1FB8
:103B60008091BD0280939A0208958091BA02813AB1
:103B700009F0B7CF8091E800877F8093E8008091BB
:103B8000E80080FFFCCF80919A02C1CF84B7877F85
:103B900084BF0FB6F894A8958091600088618093E7
:103BA0006000109260000FBE80E890E00FB6F894BD
:103BB00080936100909361000FBE0E94691B08957D
:103BC0000E940B200E946820E2EEF0E08081846079
:103BD000808378940E94E82208958CE091E00E940E
:103BE000A21908958091B902853031F48091B9020B
:103BF000853019F00E94E41B08950E94B91B809142
:103C0000B702882399F30E94761B882379F30E94D8
:103C10006E1E0E943008EACF08959A014091C002BA
:103C20005091C1020E94151E0895AC01CB01D9012B
:103C3000252F332723303105E1F058F421303105A9
:103C4000C9F122303105D9F180E090E020E030E088
:103C50001EC02132310521F122323105A9F7892B0D
:103C6000C1F16130710581F786EB90E02BE834E01B
:103C70000EC0CA019927413069F08230910569F080
:103C8000EAE3F4E0892B01F7849190E09F012D9302
:103C90003C930895EAE1F4E0F7CFE8E0F4E0F4CFF4
:103CA000892B91F06130710579F689E090E029E681
:103CB00034E0EDCF82E190E029E734E0E8CF8BE318
:103CC00090E02EE334E0E3CF89E090E020E534E0BB
:103CD000DECF84E490E021E435E0D9CF19BC82E066
:103CE00089BD09B400FEFDCF8091D8008F7D8093FF
:103CF000D8008091E00082608093E0008091E00035
:103D000081FDFCCF0895AF92BF92CF92DF92FF92D8
:103D10000F931F93CF93DF936C01EB018A010E94F5
:103D2000DA1FF82E811123C00115110539F0F801B1
:103D300080819181C81BD90BC80ED91EA12CB12C32
:103D40002097A9F08091E80085FD22C08091E800CD
:103D50008E778093E80001151105A1F0F8018081AC
:103D600091818A0D9B1D9183808385E0F82E8F2D94
:103D7000DF91CF911F910F91FF90DF90CF90BF9077
:103D8000AF9008950E94DA1F8823E1F2F82EEFCF5A
:103D9000F60181916F018093F1002197FFEFAF1A37
:103DA000BF0ACECFFC019B018091C0029091C1025D
:103DB0008617970718F0672B61F0C90140E000975C
:103DC00071F441110CC08091E80082FF35C080E0A1
:103DD00008958091E8008E778093E800EECF2091DF
:103DE000B9022223A9F12530A9F12091E80023FD91
:103DF0002DC02091E80022FDE6CF2091E80020FFB1
:103E0000DECF3091F3002091F200009719F02830B6
:103E1000310558F041E02830310509F040E02091AB
:103E2000E8002E772093E800CACF41914093F1003B
:103E300001972F5F3F4FE9CF8091B902882341F06E
:103E4000853041F08091E80083FFBDCF81E0089587
:103E500082E0089583E00895FC019B018091C002F7
:103E60009091C1028617970718F0672B61F0C9017E
:103E700040E0009771F441110CC08091E80082FF8E
:103E800036C080E008958091E8008E778093E80046
:103E9000EECF2091B9022223B1F12530B1F120916A
:103EA000E80023FD2EC02091E80022FDE6CF2091FE
:103EB000E80020FFDECF3091F3002091F200009760
:103EC00019F02830310558F041E02830310509F06B
:103ED00040E02091E8002E772093E800CACF44917B
:103EE0004093F100319601972F5F3F4FE8CF8091CB
:103EF000B902882341F0853041F08091E80083FFCA
:103F0000BCCF81E0089582E0089583E00895982F62
:103F1000973028F08F708093E90081E008959093A6
:103F2000E900242F762F50E0981731F07091EC00C3
:103F30002091ED005091F00021FD02C09F5FE8CF7D
:103F40003091EB003E7F3093EB003091ED003D7FF0
:103F50003093ED003091EB0031603093EB007093C3
:103F6000EC002093ED005093F0002091EE0027FD2F
:103F7000E5CF80E008958091BA0287FF13C0809159
:103F8000E80082FF06C08091E8008B778093E8000C
:103F900004C08091B9028111F2CF08958091B902D5
:103FA0008823D9F38091E80080FFF8CF8091E80062
:103FB0008E77ECCF2091E4003091E50095E6A901E1
:103FC0008091EC008170882331F08091E80080FFBF
:103FD00006C080E008952091E80022FD1BC080917A
:103FE000B902882391F0853091F08091EB0085FD36
:103FF00010C02091E4003091E5004217530701F30F
:1040000091509111DCCF84E0089582E0089583E01F
:10401000089581E008950E947A200E948220E0EEB7
:10402000F0E0808181608083E8EDF0E080818F772F
:10403000808319BCA7EDB0E08C918E7F8C9380813A
:104040008F7E80831092B80208950F931F93CF93B1
:10405000DF930E947A200E948220C8EDD0E0888100
:104060008F77888388818068888388818F7D888323
:1040700019BC1092B9021092B5021092B7021092B8
:10408000B60200EE10E0F80180818B7F808388818A
:104090008160888342E060E080E00E94871FE1EE5B
:1040A000F0E080818E7F8083E2EEF0E080818160AD
:1040B0008083808188608083F80180818E7F808307
:1040C000888180618883DF91CF911F910F9108953E
:1040D000E8EDF0E080818F7E8083E7EDF0E0808185
:1040E0008160808384E082BF81E08093B8020E9477
:1040F00025200895E8EDF0E080818E7F8083109286
:10410000E20008951092DA001092E10008951F92E3
:104110000F920FB60F9211242F933F934F935F93FB
:104120006F937F938F939F93AF93BF93EF93FF937F
:104130008091E10082FF0BC08091E20082FF07C006
:104140008091E1008B7F8093E1000E94E7228091C3
:10415000DA0080FF18C08091D80080FF14C08091E1
:10416000DA008E7F8093DA008091D90019BC80FF3D
:1041700091C082E089BD09B400FEFDCF81E080934B
:10418000B9020E94D01C8091E10080FF19C080918B
:10419000E20080FF15C08091E2008E7F8093E200F4
:1041A0008091E20080618093E2008091D80080627B
:1041B0008093D80019BC85E08093B9020E94E41C6A
:1041C0008091E10084FF28C08091E20084FF24C038
:1041D00019BC82E089BD09B400FEFDCF8091D800F2
:1041E0008F7D8093D8008091E1008F7E8093E100E5
:1041F0008091E2008F7E8093E2008091E2008160F6
:104200008093E2008091B502882309F448C084E0DD
:104210008093B9020E94ED1C8091E10083FF29C0C8
:104220008091E20083FF25C08091E100877F809329
:10423000E10082E08093B9021092B5028091E10022
:104240008E7F8093E1008091E2008E7F8093E20078
:104250008091E20080618093E20042E060E080E0D3
:104260000E94871F8091F00088608093F0000E9478
:10427000E11CFF91EF91BF91AF919F918F917F9141
:104280006F915F914F913F912F910F900FBE0F90C3
:104290001F9018951092B9020E94DE1C74CF809175
:1042A000E30087FF02C083E0B3CF81E0B1CF1F926C
:1042B0000F920FB60F921124FF920F931F932F931B
:1042C0003F934F935F936F937F938F939F93AF939E
:1042D000BF93CF93DF93EF93FF9309EE10E0F801C4
:1042E0008081C091EC00C795CC27C7958F70FC2EBC
:1042F000F82A1082C0EFD0E08881877F8883789485
:104300000E94A021F8011082888188608883CF2DC7
:10431000CF70C083FF91EF91DF91CF91BF91AF91AB
:104320009F918F917F916F915F914F913F912F91CD
:104330001F910F91FF900F900FBE0F901F90189537
:10434000AAE2B0E0E6EAF1E20C942B238AEB92E0D9
:10435000FC0101962091F100208322E0823C92072B
:10436000B9F70E940D1D8091E80083FF38C080914D
:10437000BA029091BB029A3090F5E92FF0E0E95A29
:10438000FB4D0C941623803889F0823841F58091DA
:10439000BE028F70873018F58093E9008091EB00A2
:1043A00085FB882780F91092E90006C08091B6024B
:1043B0009091B702911182609091E800977F90935D
:1043C000E8008093F1001092F1008091E8008E7770
:1043D00023C0811116C08091BC02813011F18091FF
:1043E000E80083FF0AC08091E800877F8093E8009F
:1043F0008091EB0080628093EB00AA96E3E00C943E
:104400004723823061F78091BC02882389F01092A3
:10441000E9008091E800877F8093E8000E94BB1F3D
:10442000DECF81E0933009F080E08093B702EFCFD8
:104430008091BE028F702FEF280F263080F6809378
:10444000E9002091EB0020FFE2CF933031F480911E
:10445000EB0080628093EB00DACF9091EB009061EB
:104460009093EB0021E030E0A90102C0440F551FFA
:104470008A95E2F74093EA001092EA008091EB00FF
:104480008860E8CF8111ABCF1091BC021F7780917B
:10449000E3008078812B8093E3008091E800877FA0
:1044A0008093E8000E94BB1F8091E80080FFFCCF52
:1044B0008091E30080688093E30083E0111101C0E4
:1044C00082E08093B9028BCF8058823008F087CF8A
:1044D0008091BC029091BD028C3D53E0950799F507
:1044E00083E08A838AE289834FB7F894DE011396CA
:1044F00020E03EE051E2E32FF0E05093570084913A
:1045000020FF03C082958F703F5F8F708A30C8F0A4
:10451000895C90E08D939D932F5F243161F74FBFAD
:104520008091E800877F8093E8006AE270E0CE0126
:1045300001960E94D21E8091E8008B778093E8005C
:104540004ECF805DE6CF6091BE027091BF02AE019A
:104550004F5F5F4F0E940D1EBC01892B09F43FCFB6
:104560008091E800877F8093E80089819A810E948A
:104570002C1FE1CF803809F032CF8091E800877F8F
:104580008093E8008091B5028093F1001ECF8111E5
:1045900026CF9091BC02923008F021CF8091E800A4
:1045A000877F8093E8009093B5020E94BB1F8091A3
:1045B000B502882331F084E08093B9020E94F81C90
:1045C0000ECF8091E30087FDF6CF81E0F5CF08950F
:1045D000CF938091B902882399F08091E900C0912E
:1045E000EC00C795CC27C7958F70C82B1092E900B7
:1045F0008091E80083FD0E94A021CF70C093E90064
:10460000CF91089597FB072E16F4009407D077FDFD
:1046100009D00E94532307FC05D03EF49095819564
:104620009F4F0895709561957F4F0895EE0FFF1F7E
:104630000590F491E02D09942F923F924F925F9252
:104640006F927F928F929F92AF92BF92CF92DF92A2
:10465000EF92FF920F931F93CF93DF93CDB7DEB707
:10466000CA1BDB0B0FB6F894DEBF0FBECDBF09949B
:104670002A88398848885F846E847D848C849B84F2
:10468000AA84B984C884DF80EE80FD800C811B8100
:10469000AA81B981CE0FD11D0FB6F894DEBF0FBE2F
:1046A000CDBFED010895AA1BBB1B51E107C0AA1F96
:1046B000BB1FA617B70710F0A61BB70B881F991FC3
:1046C0005A95A9F780959095BC01CD010895FB01FD
:1046D000DC0104C08D910190801921F441505040BB
:1046E000C8F7881B990B0895FB01DC0102C00190FB
:1046F0000D9241505040D8F70895F999FECF92BDE0
:1047000081BDF89A992780B50895A8E1B0E042E00C
:1047100050E00C94C123DC01A40FB51F4150504060
:1047200048F0CB01840F951F2E910E949C2341508D
:104730005040D0F70895262FF999FECF92BD81BD44
:10474000F89A019700B4021639F01FBA20BD0FB6CF
:10475000F894FA9AF99A0FBE08950396272F0E94AB
:104760009C230E949B23252F0E949C23242F0C9482
:104770009C230196272F0E949C230C949B23DC01F1
:10478000CB01FC01F999FECF06C0F2BDE1BDF89A5C
:10479000319600B40D9241505040B8F70895F89406
:1047A000FFCF1F061F0666066606CB06E8064E0606
:1047B0004E06ED066407750775072D132413301395
:1047C0002213811381132213811381134C1381133C
:1047D00057136213811381138113811322138113E1
:1047E0008113221381133E13811381137F137F13CF
:1047F0007F137F137F137F137F137F137F136D133B
:1048000081132D13201381138113811381138113BD
:10481000811381138113811381136D13811381130C
:104820002213811374137413741374137413741395
:104830007413741374136D13D3144715DB14A51478
:10484000A914DF14AD14E314EF14B9144015BD140A
:10485000F314C114F7141F15C514FB142615CB143B
:1048600001150915B114E714B514EB14CF1405158F
:1048700015152F153E159F14D7144E150D1610162D
:1048800016162B162B162B162B162B162B162B1635
:104890002B1619161E162216281639163F16431601
:1048A0007D1983196D19771989198F199519C321E4
:1048B000E921EF21E921EF2142226422EF21BA22EE
:0248C000C7220D
:1048C20032025202280850011E0A14017D1CB91C32
:1048D200B21CAB1CA41C01E200E900EA00B500B660
:1048E20000B700CD008301CC008A0192019401211E
:1048F20002230224022502260227022A02B300B45E
:10490200006F0070009F01CB019F02A002E200E94C
:1049120000EA00B500B600B700CD008301CC008AE2
:104922000192019401210223022402250226022778
:10493200022A02B300B4006F0070009F01CB019FF6
:1049420002A002F031323337909192939597343529
:0649520036F4F1F7F6F562
:00000001FF
